{
	"FundMe.sol": {
		"FundMe": {
			"abi": [
				{
					"inputs": [],
					"name": "Fund",
					"outputs": [],
					"stateMutability": "payable",
					"type": "function"
				}
			],
			"devdoc": {
				"kind": "dev",
				"methods": {},
				"version": 1
			},
			"evm": {
				"assembly": "    /* \"FundMe.sol\":64:362  contract FundMe {... */\n  mstore(0x40, 0x80)\n  callvalue\n  dup1\n  iszero\n  tag_1\n  jumpi\n  0x00\n  dup1\n  revert\ntag_1:\n  pop\n  dataSize(sub_0)\n  dup1\n  dataOffset(sub_0)\n  0x00\n  codecopy\n  0x00\n  return\nstop\n\nsub_0: assembly {\n        /* \"FundMe.sol\":64:362  contract FundMe {... */\n      mstore(0x40, 0x80)\n      jumpi(tag_1, lt(calldatasize, 0x04))\n      shr(0xe0, calldataload(0x00))\n      dup1\n      0x6ce1417e\n      eq\n      tag_2\n      jumpi\n    tag_1:\n      0x00\n      dup1\n      revert\n        /* \"FundMe.sol\":85:308  function  Fund()  public payable {... */\n    tag_2:\n      tag_3\n      tag_4\n      jump\t// in\n    tag_3:\n      stop\n    tag_4:\n        /* \"FundMe.sol\":264:268  1e18 */\n      0x0de0b6b3a7640000\n        /* \"FundMe.sol\":251:260  msg.value */\n      callvalue\n        /* \"FundMe.sol\":251:268  msg.value >  1e18 */\n      gt\n        /* \"FundMe.sol\":243:298  require(msg.value >  1e18, \"didint send enought ether\") */\n      tag_6\n      jumpi\n      mload(0x40)\n      0x08c379a000000000000000000000000000000000000000000000000000000000\n      dup2\n      mstore\n      0x04\n      add\n      tag_7\n      swap1\n      tag_8\n      jump\t// in\n    tag_7:\n      mload(0x40)\n      dup1\n      swap2\n      sub\n      swap1\n      revert\n    tag_6:\n        /* \"FundMe.sol\":85:308  function  Fund()  public payable {... */\n      jump\t// out\n        /* \"#utility.yul\":7:176   */\n    tag_9:\n        /* \"#utility.yul\":91:102   */\n      0x00\n        /* \"#utility.yul\":125:131   */\n      dup3\n        /* \"#utility.yul\":120:123   */\n      dup3\n        /* \"#utility.yul\":113:132   */\n      mstore\n        /* \"#utility.yul\":165:169   */\n      0x20\n        /* \"#utility.yul\":160:163   */\n      dup3\n        /* \"#utility.yul\":156:170   */\n      add\n        /* \"#utility.yul\":141:170   */\n      swap1\n      pop\n        /* \"#utility.yul\":7:176   */\n      swap3\n      swap2\n      pop\n      pop\n      jump\t// out\n        /* \"#utility.yul\":182:357   */\n    tag_10:\n        /* \"#utility.yul\":322:349   */\n      0x646964696e742073656e6420656e6f7567687420657468657200000000000000\n        /* \"#utility.yul\":318:319   */\n      0x00\n        /* \"#utility.yul\":310:316   */\n      dup3\n        /* \"#utility.yul\":306:320   */\n      add\n        /* \"#utility.yul\":299:350   */\n      mstore\n        /* \"#utility.yul\":182:357   */\n      pop\n      jump\t// out\n        /* \"#utility.yul\":363:729   */\n    tag_11:\n        /* \"#utility.yul\":505:508   */\n      0x00\n        /* \"#utility.yul\":526:593   */\n      tag_16\n        /* \"#utility.yul\":590:592   */\n      0x19\n        /* \"#utility.yul\":585:588   */\n      dup4\n        /* \"#utility.yul\":526:593   */\n      tag_9\n      jump\t// in\n    tag_16:\n        /* \"#utility.yul\":519:593   */\n      swap2\n      pop\n        /* \"#utility.yul\":602:695   */\n      tag_17\n        /* \"#utility.yul\":691:694   */\n      dup3\n        /* \"#utility.yul\":602:695   */\n      tag_10\n      jump\t// in\n    tag_17:\n        /* \"#utility.yul\":720:722   */\n      0x20\n        /* \"#utility.yul\":715:718   */\n      dup3\n        /* \"#utility.yul\":711:723   */\n      add\n        /* \"#utility.yul\":704:723   */\n      swap1\n      pop\n        /* \"#utility.yul\":363:729   */\n      swap2\n      swap1\n      pop\n      jump\t// out\n        /* \"#utility.yul\":735:1154   */\n    tag_8:\n        /* \"#utility.yul\":901:905   */\n      0x00\n        /* \"#utility.yul\":939:941   */\n      0x20\n        /* \"#utility.yul\":928:937   */\n      dup3\n        /* \"#utility.yul\":924:942   */\n      add\n        /* \"#utility.yul\":916:942   */\n      swap1\n      pop\n        /* \"#utility.yul\":988:997   */\n      dup2\n        /* \"#utility.yul\":982:986   */\n      dup2\n        /* \"#utility.yul\":978:998   */\n      sub\n        /* \"#utility.yul\":974:975   */\n      0x00\n        /* \"#utility.yul\":963:972   */\n      dup4\n        /* \"#utility.yul\":959:976   */\n      add\n        /* \"#utility.yul\":952:999   */\n      mstore\n        /* \"#utility.yul\":1016:1147   */\n      tag_19\n        /* \"#utility.yul\":1142:1146   */\n      dup2\n        /* \"#utility.yul\":1016:1147   */\n      tag_11\n      jump\t// in\n    tag_19:\n        /* \"#utility.yul\":1008:1147   */\n      swap1\n      pop\n        /* \"#utility.yul\":735:1154   */\n      swap2\n      swap1\n      pop\n      jump\t// out\n\n    auxdata: 0xa26469706673582212209e2c9762089e18936b7942cd0696d475c099a0da02effa193d0d0a99958560a764736f6c63430008120033\n}\n",
				"bytecode": {
					"linkReferences": {},
					"object": "608060405234801561001057600080fd5b5061011f806100206000396000f3fe608060405260043610601c5760003560e01c80636ce1417e146021575b600080fd5b60276029565b005b670de0b6b3a764000034116070576040517f08c379a000000000000000000000000000000000000000000000000000000000815260040160679060cb565b60405180910390fd5b565b600082825260208201905092915050565b7f646964696e742073656e6420656e6f7567687420657468657200000000000000600082015250565b600060b76019836072565b915060c0826083565b602082019050919050565b6000602082019050818103600083015260e28160ac565b905091905056fea26469706673582212209e2c9762089e18936b7942cd0696d475c099a0da02effa193d0d0a99958560a764736f6c63430008120033",
					"opcodes": "PUSH1 0x80 PUSH1 0x40 MSTORE CALLVALUE DUP1 ISZERO PUSH2 0x10 JUMPI PUSH1 0x0 DUP1 REVERT JUMPDEST POP PUSH2 0x11F DUP1 PUSH2 0x20 PUSH1 0x0 CODECOPY PUSH1 0x0 RETURN INVALID PUSH1 0x80 PUSH1 0x40 MSTORE PUSH1 0x4 CALLDATASIZE LT PUSH1 0x1C JUMPI PUSH1 0x0 CALLDATALOAD PUSH1 0xE0 SHR DUP1 PUSH4 0x6CE1417E EQ PUSH1 0x21 JUMPI JUMPDEST PUSH1 0x0 DUP1 REVERT JUMPDEST PUSH1 0x27 PUSH1 0x29 JUMP JUMPDEST STOP JUMPDEST PUSH8 0xDE0B6B3A7640000 CALLVALUE GT PUSH1 0x70 JUMPI PUSH1 0x40 MLOAD PUSH32 0x8C379A000000000000000000000000000000000000000000000000000000000 DUP2 MSTORE PUSH1 0x4 ADD PUSH1 0x67 SWAP1 PUSH1 0xCB JUMP JUMPDEST PUSH1 0x40 MLOAD DUP1 SWAP2 SUB SWAP1 REVERT JUMPDEST JUMP JUMPDEST PUSH1 0x0 DUP3 DUP3 MSTORE PUSH1 0x20 DUP3 ADD SWAP1 POP SWAP3 SWAP2 POP POP JUMP JUMPDEST PUSH32 0x646964696E742073656E6420656E6F7567687420657468657200000000000000 PUSH1 0x0 DUP3 ADD MSTORE POP JUMP JUMPDEST PUSH1 0x0 PUSH1 0xB7 PUSH1 0x19 DUP4 PUSH1 0x72 JUMP JUMPDEST SWAP2 POP PUSH1 0xC0 DUP3 PUSH1 0x83 JUMP JUMPDEST PUSH1 0x20 DUP3 ADD SWAP1 POP SWAP2 SWAP1 POP JUMP JUMPDEST PUSH1 0x0 PUSH1 0x20 DUP3 ADD SWAP1 POP DUP2 DUP2 SUB PUSH1 0x0 DUP4 ADD MSTORE PUSH1 0xE2 DUP2 PUSH1 0xAC JUMP JUMPDEST SWAP1 POP SWAP2 SWAP1 POP JUMP INVALID LOG2 PUSH5 0x6970667358 0x22 SLT KECCAK256 SWAP15 0x2C SWAP8 PUSH3 0x89E18 SWAP4 PUSH12 0x7942CD0696D475C099A0DA02 0xEF STATICCALL NOT RETURNDATASIZE 0xD EXP SWAP10 SWAP6 DUP6 PUSH1 0xA7 PUSH5 0x736F6C6343 STOP ADDMOD SLT STOP CALLER "
				},
				"gasEstimates": {
					"creation": {
						"codeDepositCost": "57400",
						"executionCost": "105",
						"totalCost": "57505"
					},
					"external": {
						"Fund()": "409"
					}
				},
				"methodIdentifiers": {
					"Fund()": "6ce1417e"
				}
			},
			"storageLayout": {
				"storage": [],
				"types": null
			},
			"userdoc": {
				"kind": "user",
				"methods": {},
				"version": 1
			}
		}
	}
}