{
	"StorageFcatory.sol": {
		"StorageFactory": {
			"abi": [
				{
					"inputs": [],
					"name": "CreateSimpleStorageContract",
					"outputs": [],
					"stateMutability": "nonpayable",
					"type": "function"
				},
				{
					"inputs": [
						{
							"internalType": "string",
							"name": "_name",
							"type": "string"
						},
						{
							"internalType": "uint256",
							"name": "_favnumber",
							"type": "uint256"
						}
					],
					"name": "addPerson",
					"outputs": [],
					"stateMutability": "nonpayable",
					"type": "function"
				},
				{
					"inputs": [
						{
							"internalType": "uint256",
							"name": "",
							"type": "uint256"
						}
					],
					"name": "listOfPeople",
					"outputs": [
						{
							"internalType": "uint256",
							"name": "favNumber",
							"type": "uint256"
						},
						{
							"internalType": "string",
							"name": "name",
							"type": "string"
						}
					],
					"stateMutability": "view",
					"type": "function"
				},
				{
					"inputs": [],
					"name": "myfavnumber",
					"outputs": [
						{
							"internalType": "uint256",
							"name": "",
							"type": "uint256"
						}
					],
					"stateMutability": "view",
					"type": "function"
				},
				{
					"inputs": [],
					"name": "mysimpleStorage",
					"outputs": [
						{
							"internalType": "contract SimpleStorage",
							"name": "",
							"type": "address"
						}
					],
					"stateMutability": "view",
					"type": "function"
				},
				{
					"inputs": [
						{
							"internalType": "string",
							"name": "",
							"type": "string"
						}
					],
					"name": "nameToFavNumber",
					"outputs": [
						{
							"internalType": "uint256",
							"name": "",
							"type": "uint256"
						}
					],
					"stateMutability": "view",
					"type": "function"
				},
				{
					"inputs": [],
					"name": "retrieve",
					"outputs": [
						{
							"internalType": "uint256",
							"name": "",
							"type": "uint256"
						}
					],
					"stateMutability": "view",
					"type": "function"
				},
				{
					"inputs": [
						{
							"internalType": "uint256",
							"name": "_favnumber",
							"type": "uint256"
						}
					],
					"name": "store",
					"outputs": [],
					"stateMutability": "nonpayable",
					"type": "function"
				}
			],
			"devdoc": {
				"kind": "dev",
				"methods": {},
				"version": 1
			},
			"evm": {
				"assembly": "    /* \"StorageFcatory.sol\":114:399  contract StorageFactory is SimpleStorage{... */\n  mstore(0x40, 0x80)\n  callvalue\n  dup1\n  iszero\n  tag_1\n  jumpi\n  0x00\n  dup1\n  revert\ntag_1:\n  pop\n  dataSize(sub_0)\n  dup1\n  dataOffset(sub_0)\n  0x00\n  codecopy\n  0x00\n  return\nstop\n\nsub_0: assembly {\n        /* \"StorageFcatory.sol\":114:399  contract StorageFactory is SimpleStorage{... */\n      mstore(0x40, 0x80)\n      callvalue\n      dup1\n      iszero\n      tag_1\n      jumpi\n      0x00\n      dup1\n      revert\n    tag_1:\n      pop\n      jumpi(tag_2, lt(calldatasize, 0x04))\n      shr(0xe0, calldataload(0x00))\n      dup1\n      0x6f760f41\n      gt\n      tag_11\n      jumpi\n      dup1\n      0x6f760f41\n      eq\n      tag_7\n      jumpi\n      dup1\n      0x9fa05b28\n      eq\n      tag_8\n      jumpi\n      dup1\n      0xe5b3018b\n      eq\n      tag_9\n      jumpi\n      dup1\n      0xee461d15\n      eq\n      tag_10\n      jumpi\n      jump(tag_2)\n    tag_11:\n      dup1\n      0x2e64cec1\n      eq\n      tag_3\n      jumpi\n      dup1\n      0x2ebce631\n      eq\n      tag_4\n      jumpi\n      dup1\n      0x43ec8f47\n      eq\n      tag_5\n      jumpi\n      dup1\n      0x6057361d\n      eq\n      tag_6\n      jumpi\n    tag_2:\n      0x00\n      dup1\n      revert\n        /* \"SimpleStorage.sol\":1092:1239  function retrieve () public view returns(uint256){... */\n    tag_3:\n      tag_12\n      tag_13\n      jump\t// in\n    tag_12:\n      mload(0x40)\n      tag_14\n      swap2\n      swap1\n      tag_15\n      jump\t// in\n    tag_14:\n      mload(0x40)\n      dup1\n      swap2\n      sub\n      swap1\n      return\n        /* \"SimpleStorage.sol\":589:618  Person [] public listOfPeople */\n    tag_4:\n      tag_16\n      0x04\n      dup1\n      calldatasize\n      sub\n      dup2\n      add\n      swap1\n      tag_17\n      swap2\n      swap1\n      tag_18\n      jump\t// in\n    tag_17:\n      tag_19\n      jump\t// in\n    tag_16:\n      mload(0x40)\n      tag_20\n      swap3\n      swap2\n      swap1\n      tag_21\n      jump\t// in\n    tag_20:\n      mload(0x40)\n      dup1\n      swap2\n      sub\n      swap1\n      return\n        /* \"SimpleStorage.sol\":627:676  mapping(string => uint256) public nameToFavNumber */\n    tag_5:\n      tag_22\n      0x04\n      dup1\n      calldatasize\n      sub\n      dup2\n      add\n      swap1\n      tag_23\n      swap2\n      swap1\n      tag_24\n      jump\t// in\n    tag_23:\n      tag_25\n      jump\t// in\n    tag_22:\n      mload(0x40)\n      tag_26\n      swap2\n      swap1\n      tag_15\n      jump\t// in\n    tag_26:\n      mload(0x40)\n      dup1\n      swap2\n      sub\n      swap1\n      return\n        /* \"SimpleStorage.sol\":687:776  function store(uint256 _favnumber) public {... */\n    tag_6:\n      tag_27\n      0x04\n      dup1\n      calldatasize\n      sub\n      dup2\n      add\n      swap1\n      tag_28\n      swap2\n      swap1\n      tag_18\n      jump\t// in\n    tag_28:\n      tag_29\n      jump\t// in\n    tag_27:\n      stop\n        /* \"SimpleStorage.sol\":1298:1491  function addPerson (string memory _name, uint256 _favnumber) public {... */\n    tag_7:\n      tag_30\n      0x04\n      dup1\n      calldatasize\n      sub\n      dup2\n      add\n      swap1\n      tag_31\n      swap2\n      swap1\n      tag_32\n      jump\t// in\n    tag_31:\n      tag_33\n      jump\t// in\n    tag_30:\n      stop\n        /* \"StorageFcatory.sol\":212:396  function CreateSimpleStorageContract() public {... */\n    tag_8:\n      tag_34\n      tag_35\n      jump\t// in\n    tag_34:\n      stop\n        /* \"StorageFcatory.sol\":163:199  SimpleStorage public mysimpleStorage */\n    tag_9:\n      tag_36\n      tag_37\n      jump\t// in\n    tag_36:\n      mload(0x40)\n      tag_38\n      swap2\n      swap1\n      tag_39\n      jump\t// in\n    tag_38:\n      mload(0x40)\n      dup1\n      swap2\n      sub\n      swap1\n      return\n        /* \"SimpleStorage.sol\":91:117  uint256 public myfavnumber */\n    tag_10:\n      tag_40\n      tag_41\n      jump\t// in\n    tag_40:\n      mload(0x40)\n      tag_42\n      swap2\n      swap1\n      tag_15\n      jump\t// in\n    tag_42:\n      mload(0x40)\n      dup1\n      swap2\n      sub\n      swap1\n      return\n        /* \"SimpleStorage.sol\":1092:1239  function retrieve () public view returns(uint256){... */\n    tag_13:\n        /* \"SimpleStorage.sol\":1133:1140  uint256 */\n      0x00\n        /* \"SimpleStorage.sol\":1160:1171  myfavnumber */\n      dup1\n      sload\n        /* \"SimpleStorage.sol\":1153:1171  return myfavnumber */\n      swap1\n      pop\n        /* \"SimpleStorage.sol\":1092:1239  function retrieve () public view returns(uint256){... */\n      swap1\n      jump\t// out\n        /* \"SimpleStorage.sol\":589:618  Person [] public listOfPeople */\n    tag_19:\n      0x02\n      dup2\n      dup2\n      sload\n      dup2\n      lt\n      tag_44\n      jumpi\n      0x00\n      dup1\n      revert\n    tag_44:\n      swap1\n      0x00\n      mstore\n      keccak256(0x00, 0x20)\n      swap1\n      0x02\n      mul\n      add\n      0x00\n      swap2\n      pop\n      swap1\n      pop\n      dup1\n      0x00\n      add\n      sload\n      swap1\n      dup1\n      0x01\n      add\n      dup1\n      sload\n      tag_46\n      swap1\n      tag_47\n      jump\t// in\n    tag_46:\n      dup1\n      0x1f\n      add\n      0x20\n      dup1\n      swap2\n      div\n      mul\n      0x20\n      add\n      mload(0x40)\n      swap1\n      dup2\n      add\n      0x40\n      mstore\n      dup1\n      swap3\n      swap2\n      swap1\n      dup2\n      dup2\n      mstore\n      0x20\n      add\n      dup3\n      dup1\n      sload\n      tag_48\n      swap1\n      tag_47\n      jump\t// in\n    tag_48:\n      dup1\n      iszero\n      tag_49\n      jumpi\n      dup1\n      0x1f\n      lt\n      tag_50\n      jumpi\n      0x0100\n      dup1\n      dup4\n      sload\n      div\n      mul\n      dup4\n      mstore\n      swap2\n      0x20\n      add\n      swap2\n      jump(tag_49)\n    tag_50:\n      dup3\n      add\n      swap2\n      swap1\n      0x00\n      mstore\n      keccak256(0x00, 0x20)\n      swap1\n    tag_51:\n      dup2\n      sload\n      dup2\n      mstore\n      swap1\n      0x01\n      add\n      swap1\n      0x20\n      add\n      dup1\n      dup4\n      gt\n      tag_51\n      jumpi\n      dup3\n      swap1\n      sub\n      0x1f\n      and\n      dup3\n      add\n      swap2\n    tag_49:\n      pop\n      pop\n      pop\n      pop\n      pop\n      swap1\n      pop\n      dup3\n      jump\t// out\n        /* \"SimpleStorage.sol\":627:676  mapping(string => uint256) public nameToFavNumber */\n    tag_25:\n      0x03\n      dup2\n      dup1\n      mload\n      0x20\n      dup2\n      add\n      dup3\n      add\n      dup1\n      mload\n      dup5\n      dup3\n      mstore\n      0x20\n      dup4\n      add\n      0x20\n      dup6\n      add\n      keccak256\n      dup2\n      dup4\n      mstore\n      dup1\n      swap6\n      pop\n      pop\n      pop\n      pop\n      pop\n      pop\n      0x00\n      swap2\n      pop\n      swap1\n      pop\n      sload\n      dup2\n      jump\t// out\n        /* \"SimpleStorage.sol\":687:776  function store(uint256 _favnumber) public {... */\n    tag_29:\n        /* \"SimpleStorage.sol\":754:764  _favnumber */\n      dup1\n        /* \"SimpleStorage.sol\":740:751  myfavnumber */\n      0x00\n        /* \"SimpleStorage.sol\":740:764  myfavnumber = _favnumber */\n      dup2\n      swap1\n      sstore\n      pop\n        /* \"SimpleStorage.sol\":687:776  function store(uint256 _favnumber) public {... */\n      pop\n      jump\t// out\n        /* \"SimpleStorage.sol\":1298:1491  function addPerson (string memory _name, uint256 _favnumber) public {... */\n    tag_33:\n        /* \"SimpleStorage.sol\":1379:1391  listOfPeople */\n      0x02\n        /* \"SimpleStorage.sol\":1397:1422  Person(_favnumber, _name) */\n      mload(0x40)\n      dup1\n      0x40\n      add\n      0x40\n      mstore\n      dup1\n        /* \"SimpleStorage.sol\":1404:1414  _favnumber */\n      dup4\n        /* \"SimpleStorage.sol\":1397:1422  Person(_favnumber, _name) */\n      dup2\n      mstore\n      0x20\n      add\n        /* \"SimpleStorage.sol\":1416:1421  _name */\n      dup5\n        /* \"SimpleStorage.sol\":1397:1422  Person(_favnumber, _name) */\n      dup2\n      mstore\n      pop\n        /* \"SimpleStorage.sol\":1379:1423  listOfPeople.push(Person(_favnumber, _name)) */\n      swap1\n      dup1\n      0x01\n      dup2\n      sload\n      add\n      dup1\n      dup3\n      sstore\n      dup1\n      swap2\n      pop\n      pop\n      0x01\n      swap1\n      sub\n      swap1\n      0x00\n      mstore\n      keccak256(0x00, 0x20)\n      swap1\n      0x02\n      mul\n      add\n      0x00\n      swap1\n      swap2\n      swap1\n      swap2\n      swap1\n      swap2\n      pop\n      0x00\n      dup3\n      add\n      mload\n      dup2\n      0x00\n      add\n      sstore\n      0x20\n      dup3\n      add\n      mload\n      dup2\n      0x01\n      add\n      swap1\n      dup2\n      tag_55\n      swap2\n      swap1\n      tag_56\n      jump\t// in\n    tag_55:\n      pop\n      pop\n      pop\n        /* \"SimpleStorage.sol\":1461:1471  _favnumber */\n      dup1\n        /* \"SimpleStorage.sol\":1436:1451  nameToFavNumber */\n      0x03\n        /* \"SimpleStorage.sol\":1452:1457  _name */\n      dup4\n        /* \"SimpleStorage.sol\":1436:1458  nameToFavNumber[_name] */\n      mload(0x40)\n      tag_57\n      swap2\n      swap1\n      tag_58\n      jump\t// in\n    tag_57:\n      swap1\n      dup2\n      mstore\n      0x20\n      add\n      mload(0x40)\n      dup1\n      swap2\n      sub\n      swap1\n      keccak256\n        /* \"SimpleStorage.sol\":1436:1471  nameToFavNumber[_name] = _favnumber */\n      dup2\n      swap1\n      sstore\n      pop\n        /* \"SimpleStorage.sol\":1298:1491  function addPerson (string memory _name, uint256 _favnumber) public {... */\n      pop\n      pop\n      jump\t// out\n        /* \"StorageFcatory.sol\":212:396  function CreateSimpleStorageContract() public {... */\n    tag_35:\n      jump\t// out\n        /* \"StorageFcatory.sol\":163:199  SimpleStorage public mysimpleStorage */\n    tag_37:\n      0x04\n      0x00\n      swap1\n      sload\n      swap1\n      0x0100\n      exp\n      swap1\n      div\n      0xffffffffffffffffffffffffffffffffffffffff\n      and\n      dup2\n      jump\t// out\n        /* \"SimpleStorage.sol\":91:117  uint256 public myfavnumber */\n    tag_41:\n      sload(0x00)\n      dup2\n      jump\t// out\n        /* \"#utility.yul\":7:84   */\n    tag_60:\n        /* \"#utility.yul\":44:51   */\n      0x00\n        /* \"#utility.yul\":73:78   */\n      dup2\n        /* \"#utility.yul\":62:78   */\n      swap1\n      pop\n        /* \"#utility.yul\":7:84   */\n      swap2\n      swap1\n      pop\n      jump\t// out\n        /* \"#utility.yul\":90:208   */\n    tag_61:\n        /* \"#utility.yul\":177:201   */\n      tag_107\n        /* \"#utility.yul\":195:200   */\n      dup2\n        /* \"#utility.yul\":177:201   */\n      tag_60\n      jump\t// in\n    tag_107:\n        /* \"#utility.yul\":172:175   */\n      dup3\n        /* \"#utility.yul\":165:202   */\n      mstore\n        /* \"#utility.yul\":90:208   */\n      pop\n      pop\n      jump\t// out\n        /* \"#utility.yul\":214:436   */\n    tag_15:\n        /* \"#utility.yul\":307:311   */\n      0x00\n        /* \"#utility.yul\":345:347   */\n      0x20\n        /* \"#utility.yul\":334:343   */\n      dup3\n        /* \"#utility.yul\":330:348   */\n      add\n        /* \"#utility.yul\":322:348   */\n      swap1\n      pop\n        /* \"#utility.yul\":358:429   */\n      tag_109\n        /* \"#utility.yul\":426:427   */\n      0x00\n        /* \"#utility.yul\":415:424   */\n      dup4\n        /* \"#utility.yul\":411:428   */\n      add\n        /* \"#utility.yul\":402:408   */\n      dup5\n        /* \"#utility.yul\":358:429   */\n      tag_61\n      jump\t// in\n    tag_109:\n        /* \"#utility.yul\":214:436   */\n      swap3\n      swap2\n      pop\n      pop\n      jump\t// out\n        /* \"#utility.yul\":442:517   */\n    tag_62:\n        /* \"#utility.yul\":475:481   */\n      0x00\n        /* \"#utility.yul\":508:510   */\n      0x40\n        /* \"#utility.yul\":502:511   */\n      mload\n        /* \"#utility.yul\":492:511   */\n      swap1\n      pop\n        /* \"#utility.yul\":442:517   */\n      swap1\n      jump\t// out\n        /* \"#utility.yul\":523:640   */\n    tag_63:\n        /* \"#utility.yul\":632:633   */\n      0x00\n        /* \"#utility.yul\":629:630   */\n      dup1\n        /* \"#utility.yul\":622:634   */\n      revert\n        /* \"#utility.yul\":646:763   */\n    tag_64:\n        /* \"#utility.yul\":755:756   */\n      0x00\n        /* \"#utility.yul\":752:753   */\n      dup1\n        /* \"#utility.yul\":745:757   */\n      revert\n        /* \"#utility.yul\":769:891   */\n    tag_65:\n        /* \"#utility.yul\":842:866   */\n      tag_114\n        /* \"#utility.yul\":860:865   */\n      dup2\n        /* \"#utility.yul\":842:866   */\n      tag_60\n      jump\t// in\n    tag_114:\n        /* \"#utility.yul\":835:840   */\n      dup2\n        /* \"#utility.yul\":832:867   */\n      eq\n        /* \"#utility.yul\":822:885   */\n      tag_115\n      jumpi\n        /* \"#utility.yul\":881:882   */\n      0x00\n        /* \"#utility.yul\":878:879   */\n      dup1\n        /* \"#utility.yul\":871:883   */\n      revert\n        /* \"#utility.yul\":822:885   */\n    tag_115:\n        /* \"#utility.yul\":769:891   */\n      pop\n      jump\t// out\n        /* \"#utility.yul\":897:1036   */\n    tag_66:\n        /* \"#utility.yul\":943:948   */\n      0x00\n        /* \"#utility.yul\":981:987   */\n      dup2\n        /* \"#utility.yul\":968:988   */\n      calldataload\n        /* \"#utility.yul\":959:988   */\n      swap1\n      pop\n        /* \"#utility.yul\":997:1030   */\n      tag_117\n        /* \"#utility.yul\":1024:1029   */\n      dup2\n        /* \"#utility.yul\":997:1030   */\n      tag_65\n      jump\t// in\n    tag_117:\n        /* \"#utility.yul\":897:1036   */\n      swap3\n      swap2\n      pop\n      pop\n      jump\t// out\n        /* \"#utility.yul\":1042:1371   */\n    tag_18:\n        /* \"#utility.yul\":1101:1107   */\n      0x00\n        /* \"#utility.yul\":1150:1152   */\n      0x20\n        /* \"#utility.yul\":1138:1147   */\n      dup3\n        /* \"#utility.yul\":1129:1136   */\n      dup5\n        /* \"#utility.yul\":1125:1148   */\n      sub\n        /* \"#utility.yul\":1121:1153   */\n      slt\n        /* \"#utility.yul\":1118:1237   */\n      iszero\n      tag_119\n      jumpi\n        /* \"#utility.yul\":1156:1235   */\n      tag_120\n      tag_63\n      jump\t// in\n    tag_120:\n        /* \"#utility.yul\":1118:1237   */\n    tag_119:\n        /* \"#utility.yul\":1276:1277   */\n      0x00\n        /* \"#utility.yul\":1301:1354   */\n      tag_121\n        /* \"#utility.yul\":1346:1353   */\n      dup5\n        /* \"#utility.yul\":1337:1343   */\n      dup3\n        /* \"#utility.yul\":1326:1335   */\n      dup6\n        /* \"#utility.yul\":1322:1344   */\n      add\n        /* \"#utility.yul\":1301:1354   */\n      tag_66\n      jump\t// in\n    tag_121:\n        /* \"#utility.yul\":1291:1354   */\n      swap2\n      pop\n        /* \"#utility.yul\":1247:1364   */\n      pop\n        /* \"#utility.yul\":1042:1371   */\n      swap3\n      swap2\n      pop\n      pop\n      jump\t// out\n        /* \"#utility.yul\":1377:1476   */\n    tag_67:\n        /* \"#utility.yul\":1429:1435   */\n      0x00\n        /* \"#utility.yul\":1463:1468   */\n      dup2\n        /* \"#utility.yul\":1457:1469   */\n      mload\n        /* \"#utility.yul\":1447:1469   */\n      swap1\n      pop\n        /* \"#utility.yul\":1377:1476   */\n      swap2\n      swap1\n      pop\n      jump\t// out\n        /* \"#utility.yul\":1482:1651   */\n    tag_68:\n        /* \"#utility.yul\":1566:1577   */\n      0x00\n        /* \"#utility.yul\":1600:1606   */\n      dup3\n        /* \"#utility.yul\":1595:1598   */\n      dup3\n        /* \"#utility.yul\":1588:1607   */\n      mstore\n        /* \"#utility.yul\":1640:1644   */\n      0x20\n        /* \"#utility.yul\":1635:1638   */\n      dup3\n        /* \"#utility.yul\":1631:1645   */\n      add\n        /* \"#utility.yul\":1616:1645   */\n      swap1\n      pop\n        /* \"#utility.yul\":1482:1651   */\n      swap3\n      swap2\n      pop\n      pop\n      jump\t// out\n        /* \"#utility.yul\":1657:1903   */\n    tag_69:\n        /* \"#utility.yul\":1738:1739   */\n      0x00\n        /* \"#utility.yul\":1748:1861   */\n    tag_125:\n        /* \"#utility.yul\":1762:1768   */\n      dup4\n        /* \"#utility.yul\":1759:1760   */\n      dup2\n        /* \"#utility.yul\":1756:1769   */\n      lt\n        /* \"#utility.yul\":1748:1861   */\n      iszero\n      tag_127\n      jumpi\n        /* \"#utility.yul\":1847:1848   */\n      dup1\n        /* \"#utility.yul\":1842:1845   */\n      dup3\n        /* \"#utility.yul\":1838:1849   */\n      add\n        /* \"#utility.yul\":1832:1850   */\n      mload\n        /* \"#utility.yul\":1828:1829   */\n      dup2\n        /* \"#utility.yul\":1823:1826   */\n      dup5\n        /* \"#utility.yul\":1819:1830   */\n      add\n        /* \"#utility.yul\":1812:1851   */\n      mstore\n        /* \"#utility.yul\":1784:1786   */\n      0x20\n        /* \"#utility.yul\":1781:1782   */\n      dup2\n        /* \"#utility.yul\":1777:1787   */\n      add\n        /* \"#utility.yul\":1772:1787   */\n      swap1\n      pop\n        /* \"#utility.yul\":1748:1861   */\n      jump(tag_125)\n    tag_127:\n        /* \"#utility.yul\":1895:1896   */\n      0x00\n        /* \"#utility.yul\":1886:1892   */\n      dup5\n        /* \"#utility.yul\":1881:1884   */\n      dup5\n        /* \"#utility.yul\":1877:1893   */\n      add\n        /* \"#utility.yul\":1870:1897   */\n      mstore\n        /* \"#utility.yul\":1719:1903   */\n      pop\n        /* \"#utility.yul\":1657:1903   */\n      pop\n      pop\n      pop\n      jump\t// out\n        /* \"#utility.yul\":1909:2011   */\n    tag_70:\n        /* \"#utility.yul\":1950:1956   */\n      0x00\n        /* \"#utility.yul\":2001:2003   */\n      0x1f\n        /* \"#utility.yul\":1997:2004   */\n      not\n        /* \"#utility.yul\":1992:1994   */\n      0x1f\n        /* \"#utility.yul\":1985:1990   */\n      dup4\n        /* \"#utility.yul\":1981:1995   */\n      add\n        /* \"#utility.yul\":1977:2005   */\n      and\n        /* \"#utility.yul\":1967:2005   */\n      swap1\n      pop\n        /* \"#utility.yul\":1909:2011   */\n      swap2\n      swap1\n      pop\n      jump\t// out\n        /* \"#utility.yul\":2017:2394   */\n    tag_71:\n        /* \"#utility.yul\":2105:2108   */\n      0x00\n        /* \"#utility.yul\":2133:2172   */\n      tag_130\n        /* \"#utility.yul\":2166:2171   */\n      dup3\n        /* \"#utility.yul\":2133:2172   */\n      tag_67\n      jump\t// in\n    tag_130:\n        /* \"#utility.yul\":2188:2259   */\n      tag_131\n        /* \"#utility.yul\":2252:2258   */\n      dup2\n        /* \"#utility.yul\":2247:2250   */\n      dup6\n        /* \"#utility.yul\":2188:2259   */\n      tag_68\n      jump\t// in\n    tag_131:\n        /* \"#utility.yul\":2181:2259   */\n      swap4\n      pop\n        /* \"#utility.yul\":2268:2333   */\n      tag_132\n        /* \"#utility.yul\":2326:2332   */\n      dup2\n        /* \"#utility.yul\":2321:2324   */\n      dup6\n        /* \"#utility.yul\":2314:2318   */\n      0x20\n        /* \"#utility.yul\":2307:2312   */\n      dup7\n        /* \"#utility.yul\":2303:2319   */\n      add\n        /* \"#utility.yul\":2268:2333   */\n      tag_69\n      jump\t// in\n    tag_132:\n        /* \"#utility.yul\":2358:2387   */\n      tag_133\n        /* \"#utility.yul\":2380:2386   */\n      dup2\n        /* \"#utility.yul\":2358:2387   */\n      tag_70\n      jump\t// in\n    tag_133:\n        /* \"#utility.yul\":2353:2356   */\n      dup5\n        /* \"#utility.yul\":2349:2388   */\n      add\n        /* \"#utility.yul\":2342:2388   */\n      swap2\n      pop\n        /* \"#utility.yul\":2109:2394   */\n      pop\n        /* \"#utility.yul\":2017:2394   */\n      swap3\n      swap2\n      pop\n      pop\n      jump\t// out\n        /* \"#utility.yul\":2400:2823   */\n    tag_21:\n        /* \"#utility.yul\":2541:2545   */\n      0x00\n        /* \"#utility.yul\":2579:2581   */\n      0x40\n        /* \"#utility.yul\":2568:2577   */\n      dup3\n        /* \"#utility.yul\":2564:2582   */\n      add\n        /* \"#utility.yul\":2556:2582   */\n      swap1\n      pop\n        /* \"#utility.yul\":2592:2663   */\n      tag_135\n        /* \"#utility.yul\":2660:2661   */\n      0x00\n        /* \"#utility.yul\":2649:2658   */\n      dup4\n        /* \"#utility.yul\":2645:2662   */\n      add\n        /* \"#utility.yul\":2636:2642   */\n      dup6\n        /* \"#utility.yul\":2592:2663   */\n      tag_61\n      jump\t// in\n    tag_135:\n        /* \"#utility.yul\":2710:2719   */\n      dup2\n        /* \"#utility.yul\":2704:2708   */\n      dup2\n        /* \"#utility.yul\":2700:2720   */\n      sub\n        /* \"#utility.yul\":2695:2697   */\n      0x20\n        /* \"#utility.yul\":2684:2693   */\n      dup4\n        /* \"#utility.yul\":2680:2698   */\n      add\n        /* \"#utility.yul\":2673:2721   */\n      mstore\n        /* \"#utility.yul\":2738:2816   */\n      tag_136\n        /* \"#utility.yul\":2811:2815   */\n      dup2\n        /* \"#utility.yul\":2802:2808   */\n      dup5\n        /* \"#utility.yul\":2738:2816   */\n      tag_71\n      jump\t// in\n    tag_136:\n        /* \"#utility.yul\":2730:2816   */\n      swap1\n      pop\n        /* \"#utility.yul\":2400:2823   */\n      swap4\n      swap3\n      pop\n      pop\n      pop\n      jump\t// out\n        /* \"#utility.yul\":2829:2946   */\n    tag_72:\n        /* \"#utility.yul\":2938:2939   */\n      0x00\n        /* \"#utility.yul\":2935:2936   */\n      dup1\n        /* \"#utility.yul\":2928:2940   */\n      revert\n        /* \"#utility.yul\":2952:3069   */\n    tag_73:\n        /* \"#utility.yul\":3061:3062   */\n      0x00\n        /* \"#utility.yul\":3058:3059   */\n      dup1\n        /* \"#utility.yul\":3051:3063   */\n      revert\n        /* \"#utility.yul\":3075:3255   */\n    tag_74:\n        /* \"#utility.yul\":3123:3200   */\n      0x4e487b7100000000000000000000000000000000000000000000000000000000\n        /* \"#utility.yul\":3120:3121   */\n      0x00\n        /* \"#utility.yul\":3113:3201   */\n      mstore\n        /* \"#utility.yul\":3220:3224   */\n      0x41\n        /* \"#utility.yul\":3217:3218   */\n      0x04\n        /* \"#utility.yul\":3210:3225   */\n      mstore\n        /* \"#utility.yul\":3244:3248   */\n      0x24\n        /* \"#utility.yul\":3241:3242   */\n      0x00\n        /* \"#utility.yul\":3234:3249   */\n      revert\n        /* \"#utility.yul\":3261:3542   */\n    tag_75:\n        /* \"#utility.yul\":3344:3371   */\n      tag_141\n        /* \"#utility.yul\":3366:3370   */\n      dup3\n        /* \"#utility.yul\":3344:3371   */\n      tag_70\n      jump\t// in\n    tag_141:\n        /* \"#utility.yul\":3336:3342   */\n      dup2\n        /* \"#utility.yul\":3332:3372   */\n      add\n        /* \"#utility.yul\":3474:3480   */\n      dup2\n        /* \"#utility.yul\":3462:3472   */\n      dup2\n        /* \"#utility.yul\":3459:3481   */\n      lt\n        /* \"#utility.yul\":3438:3456   */\n      0xffffffffffffffff\n        /* \"#utility.yul\":3426:3436   */\n      dup3\n        /* \"#utility.yul\":3423:3457   */\n      gt\n        /* \"#utility.yul\":3420:3482   */\n      or\n        /* \"#utility.yul\":3417:3505   */\n      iszero\n      tag_142\n      jumpi\n        /* \"#utility.yul\":3485:3503   */\n      tag_143\n      tag_74\n      jump\t// in\n    tag_143:\n        /* \"#utility.yul\":3417:3505   */\n    tag_142:\n        /* \"#utility.yul\":3525:3535   */\n      dup1\n        /* \"#utility.yul\":3521:3523   */\n      0x40\n        /* \"#utility.yul\":3514:3536   */\n      mstore\n        /* \"#utility.yul\":3304:3542   */\n      pop\n        /* \"#utility.yul\":3261:3542   */\n      pop\n      pop\n      jump\t// out\n        /* \"#utility.yul\":3548:3677   */\n    tag_76:\n        /* \"#utility.yul\":3582:3588   */\n      0x00\n        /* \"#utility.yul\":3609:3629   */\n      tag_145\n      tag_62\n      jump\t// in\n    tag_145:\n        /* \"#utility.yul\":3599:3629   */\n      swap1\n      pop\n        /* \"#utility.yul\":3638:3671   */\n      tag_146\n        /* \"#utility.yul\":3666:3670   */\n      dup3\n        /* \"#utility.yul\":3658:3664   */\n      dup3\n        /* \"#utility.yul\":3638:3671   */\n      tag_75\n      jump\t// in\n    tag_146:\n        /* \"#utility.yul\":3548:3677   */\n      swap2\n      swap1\n      pop\n      jump\t// out\n        /* \"#utility.yul\":3683:3991   */\n    tag_77:\n        /* \"#utility.yul\":3745:3749   */\n      0x00\n        /* \"#utility.yul\":3835:3853   */\n      0xffffffffffffffff\n        /* \"#utility.yul\":3827:3833   */\n      dup3\n        /* \"#utility.yul\":3824:3854   */\n      gt\n        /* \"#utility.yul\":3821:3877   */\n      iszero\n      tag_148\n      jumpi\n        /* \"#utility.yul\":3857:3875   */\n      tag_149\n      tag_74\n      jump\t// in\n    tag_149:\n        /* \"#utility.yul\":3821:3877   */\n    tag_148:\n        /* \"#utility.yul\":3895:3924   */\n      tag_150\n        /* \"#utility.yul\":3917:3923   */\n      dup3\n        /* \"#utility.yul\":3895:3924   */\n      tag_70\n      jump\t// in\n    tag_150:\n        /* \"#utility.yul\":3887:3924   */\n      swap1\n      pop\n        /* \"#utility.yul\":3979:3983   */\n      0x20\n        /* \"#utility.yul\":3973:3977   */\n      dup2\n        /* \"#utility.yul\":3969:3984   */\n      add\n        /* \"#utility.yul\":3961:3984   */\n      swap1\n      pop\n        /* \"#utility.yul\":3683:3991   */\n      swap2\n      swap1\n      pop\n      jump\t// out\n        /* \"#utility.yul\":3997:4143   */\n    tag_78:\n        /* \"#utility.yul\":4094:4100   */\n      dup3\n        /* \"#utility.yul\":4089:4092   */\n      dup2\n        /* \"#utility.yul\":4084:4087   */\n      dup4\n        /* \"#utility.yul\":4071:4101   */\n      calldatacopy\n        /* \"#utility.yul\":4135:4136   */\n      0x00\n        /* \"#utility.yul\":4126:4132   */\n      dup4\n        /* \"#utility.yul\":4121:4124   */\n      dup4\n        /* \"#utility.yul\":4117:4133   */\n      add\n        /* \"#utility.yul\":4110:4137   */\n      mstore\n        /* \"#utility.yul\":3997:4143   */\n      pop\n      pop\n      pop\n      jump\t// out\n        /* \"#utility.yul\":4149:4574   */\n    tag_79:\n        /* \"#utility.yul\":4227:4232   */\n      0x00\n        /* \"#utility.yul\":4252:4318   */\n      tag_153\n        /* \"#utility.yul\":4268:4317   */\n      tag_154\n        /* \"#utility.yul\":4310:4316   */\n      dup5\n        /* \"#utility.yul\":4268:4317   */\n      tag_77\n      jump\t// in\n    tag_154:\n        /* \"#utility.yul\":4252:4318   */\n      tag_76\n      jump\t// in\n    tag_153:\n        /* \"#utility.yul\":4243:4318   */\n      swap1\n      pop\n        /* \"#utility.yul\":4341:4347   */\n      dup3\n        /* \"#utility.yul\":4334:4339   */\n      dup2\n        /* \"#utility.yul\":4327:4348   */\n      mstore\n        /* \"#utility.yul\":4379:4383   */\n      0x20\n        /* \"#utility.yul\":4372:4377   */\n      dup2\n        /* \"#utility.yul\":4368:4384   */\n      add\n        /* \"#utility.yul\":4417:4420   */\n      dup5\n        /* \"#utility.yul\":4408:4414   */\n      dup5\n        /* \"#utility.yul\":4403:4406   */\n      dup5\n        /* \"#utility.yul\":4399:4415   */\n      add\n        /* \"#utility.yul\":4396:4421   */\n      gt\n        /* \"#utility.yul\":4393:4505   */\n      iszero\n      tag_155\n      jumpi\n        /* \"#utility.yul\":4424:4503   */\n      tag_156\n      tag_73\n      jump\t// in\n    tag_156:\n        /* \"#utility.yul\":4393:4505   */\n    tag_155:\n        /* \"#utility.yul\":4514:4568   */\n      tag_157\n        /* \"#utility.yul\":4561:4567   */\n      dup5\n        /* \"#utility.yul\":4556:4559   */\n      dup3\n        /* \"#utility.yul\":4551:4554   */\n      dup6\n        /* \"#utility.yul\":4514:4568   */\n      tag_78\n      jump\t// in\n    tag_157:\n        /* \"#utility.yul\":4233:4574   */\n      pop\n        /* \"#utility.yul\":4149:4574   */\n      swap4\n      swap3\n      pop\n      pop\n      pop\n      jump\t// out\n        /* \"#utility.yul\":4594:4934   */\n    tag_80:\n        /* \"#utility.yul\":4650:4655   */\n      0x00\n        /* \"#utility.yul\":4699:4702   */\n      dup3\n        /* \"#utility.yul\":4692:4696   */\n      0x1f\n        /* \"#utility.yul\":4684:4690   */\n      dup4\n        /* \"#utility.yul\":4680:4697   */\n      add\n        /* \"#utility.yul\":4676:4703   */\n      slt\n        /* \"#utility.yul\":4666:4788   */\n      tag_159\n      jumpi\n        /* \"#utility.yul\":4707:4786   */\n      tag_160\n      tag_72\n      jump\t// in\n    tag_160:\n        /* \"#utility.yul\":4666:4788   */\n    tag_159:\n        /* \"#utility.yul\":4824:4830   */\n      dup2\n        /* \"#utility.yul\":4811:4831   */\n      calldataload\n        /* \"#utility.yul\":4849:4928   */\n      tag_161\n        /* \"#utility.yul\":4924:4927   */\n      dup5\n        /* \"#utility.yul\":4916:4922   */\n      dup3\n        /* \"#utility.yul\":4909:4913   */\n      0x20\n        /* \"#utility.yul\":4901:4907   */\n      dup7\n        /* \"#utility.yul\":4897:4914   */\n      add\n        /* \"#utility.yul\":4849:4928   */\n      tag_79\n      jump\t// in\n    tag_161:\n        /* \"#utility.yul\":4840:4928   */\n      swap2\n      pop\n        /* \"#utility.yul\":4656:4934   */\n      pop\n        /* \"#utility.yul\":4594:4934   */\n      swap3\n      swap2\n      pop\n      pop\n      jump\t// out\n        /* \"#utility.yul\":4940:5449   */\n    tag_24:\n        /* \"#utility.yul\":5009:5015   */\n      0x00\n        /* \"#utility.yul\":5058:5060   */\n      0x20\n        /* \"#utility.yul\":5046:5055   */\n      dup3\n        /* \"#utility.yul\":5037:5044   */\n      dup5\n        /* \"#utility.yul\":5033:5056   */\n      sub\n        /* \"#utility.yul\":5029:5061   */\n      slt\n        /* \"#utility.yul\":5026:5145   */\n      iszero\n      tag_163\n      jumpi\n        /* \"#utility.yul\":5064:5143   */\n      tag_164\n      tag_63\n      jump\t// in\n    tag_164:\n        /* \"#utility.yul\":5026:5145   */\n    tag_163:\n        /* \"#utility.yul\":5212:5213   */\n      0x00\n        /* \"#utility.yul\":5201:5210   */\n      dup3\n        /* \"#utility.yul\":5197:5214   */\n      add\n        /* \"#utility.yul\":5184:5215   */\n      calldataload\n        /* \"#utility.yul\":5242:5260   */\n      0xffffffffffffffff\n        /* \"#utility.yul\":5234:5240   */\n      dup2\n        /* \"#utility.yul\":5231:5261   */\n      gt\n        /* \"#utility.yul\":5228:5345   */\n      iszero\n      tag_165\n      jumpi\n        /* \"#utility.yul\":5264:5343   */\n      tag_166\n      tag_64\n      jump\t// in\n    tag_166:\n        /* \"#utility.yul\":5228:5345   */\n    tag_165:\n        /* \"#utility.yul\":5369:5432   */\n      tag_167\n        /* \"#utility.yul\":5424:5431   */\n      dup5\n        /* \"#utility.yul\":5415:5421   */\n      dup3\n        /* \"#utility.yul\":5404:5413   */\n      dup6\n        /* \"#utility.yul\":5400:5422   */\n      add\n        /* \"#utility.yul\":5369:5432   */\n      tag_80\n      jump\t// in\n    tag_167:\n        /* \"#utility.yul\":5359:5432   */\n      swap2\n      pop\n        /* \"#utility.yul\":5155:5442   */\n      pop\n        /* \"#utility.yul\":4940:5449   */\n      swap3\n      swap2\n      pop\n      pop\n      jump\t// out\n        /* \"#utility.yul\":5455:6109   */\n    tag_32:\n        /* \"#utility.yul\":5533:5539   */\n      0x00\n        /* \"#utility.yul\":5541:5547   */\n      dup1\n        /* \"#utility.yul\":5590:5592   */\n      0x40\n        /* \"#utility.yul\":5578:5587   */\n      dup4\n        /* \"#utility.yul\":5569:5576   */\n      dup6\n        /* \"#utility.yul\":5565:5588   */\n      sub\n        /* \"#utility.yul\":5561:5593   */\n      slt\n        /* \"#utility.yul\":5558:5677   */\n      iszero\n      tag_169\n      jumpi\n        /* \"#utility.yul\":5596:5675   */\n      tag_170\n      tag_63\n      jump\t// in\n    tag_170:\n        /* \"#utility.yul\":5558:5677   */\n    tag_169:\n        /* \"#utility.yul\":5744:5745   */\n      0x00\n        /* \"#utility.yul\":5733:5742   */\n      dup4\n        /* \"#utility.yul\":5729:5746   */\n      add\n        /* \"#utility.yul\":5716:5747   */\n      calldataload\n        /* \"#utility.yul\":5774:5792   */\n      0xffffffffffffffff\n        /* \"#utility.yul\":5766:5772   */\n      dup2\n        /* \"#utility.yul\":5763:5793   */\n      gt\n        /* \"#utility.yul\":5760:5877   */\n      iszero\n      tag_171\n      jumpi\n        /* \"#utility.yul\":5796:5875   */\n      tag_172\n      tag_64\n      jump\t// in\n    tag_172:\n        /* \"#utility.yul\":5760:5877   */\n    tag_171:\n        /* \"#utility.yul\":5901:5964   */\n      tag_173\n        /* \"#utility.yul\":5956:5963   */\n      dup6\n        /* \"#utility.yul\":5947:5953   */\n      dup3\n        /* \"#utility.yul\":5936:5945   */\n      dup7\n        /* \"#utility.yul\":5932:5954   */\n      add\n        /* \"#utility.yul\":5901:5964   */\n      tag_80\n      jump\t// in\n    tag_173:\n        /* \"#utility.yul\":5891:5964   */\n      swap3\n      pop\n        /* \"#utility.yul\":5687:5974   */\n      pop\n        /* \"#utility.yul\":6013:6015   */\n      0x20\n        /* \"#utility.yul\":6039:6092   */\n      tag_174\n        /* \"#utility.yul\":6084:6091   */\n      dup6\n        /* \"#utility.yul\":6075:6081   */\n      dup3\n        /* \"#utility.yul\":6064:6073   */\n      dup7\n        /* \"#utility.yul\":6060:6082   */\n      add\n        /* \"#utility.yul\":6039:6092   */\n      tag_66\n      jump\t// in\n    tag_174:\n        /* \"#utility.yul\":6029:6092   */\n      swap2\n      pop\n        /* \"#utility.yul\":5984:6102   */\n      pop\n        /* \"#utility.yul\":5455:6109   */\n      swap3\n      pop\n      swap3\n      swap1\n      pop\n      jump\t// out\n        /* \"#utility.yul\":6115:6241   */\n    tag_81:\n        /* \"#utility.yul\":6152:6159   */\n      0x00\n        /* \"#utility.yul\":6192:6234   */\n      0xffffffffffffffffffffffffffffffffffffffff\n        /* \"#utility.yul\":6185:6190   */\n      dup3\n        /* \"#utility.yul\":6181:6235   */\n      and\n        /* \"#utility.yul\":6170:6235   */\n      swap1\n      pop\n        /* \"#utility.yul\":6115:6241   */\n      swap2\n      swap1\n      pop\n      jump\t// out\n        /* \"#utility.yul\":6247:6307   */\n    tag_82:\n        /* \"#utility.yul\":6275:6278   */\n      0x00\n        /* \"#utility.yul\":6296:6301   */\n      dup2\n        /* \"#utility.yul\":6289:6301   */\n      swap1\n      pop\n        /* \"#utility.yul\":6247:6307   */\n      swap2\n      swap1\n      pop\n      jump\t// out\n        /* \"#utility.yul\":6313:6455   */\n    tag_83:\n        /* \"#utility.yul\":6363:6372   */\n      0x00\n        /* \"#utility.yul\":6396:6449   */\n      tag_178\n        /* \"#utility.yul\":6414:6448   */\n      tag_179\n        /* \"#utility.yul\":6423:6447   */\n      tag_180\n        /* \"#utility.yul\":6441:6446   */\n      dup5\n        /* \"#utility.yul\":6423:6447   */\n      tag_81\n      jump\t// in\n    tag_180:\n        /* \"#utility.yul\":6414:6448   */\n      tag_82\n      jump\t// in\n    tag_179:\n        /* \"#utility.yul\":6396:6449   */\n      tag_81\n      jump\t// in\n    tag_178:\n        /* \"#utility.yul\":6383:6449   */\n      swap1\n      pop\n        /* \"#utility.yul\":6313:6455   */\n      swap2\n      swap1\n      pop\n      jump\t// out\n        /* \"#utility.yul\":6461:6587   */\n    tag_84:\n        /* \"#utility.yul\":6511:6520   */\n      0x00\n        /* \"#utility.yul\":6544:6581   */\n      tag_182\n        /* \"#utility.yul\":6575:6580   */\n      dup3\n        /* \"#utility.yul\":6544:6581   */\n      tag_83\n      jump\t// in\n    tag_182:\n        /* \"#utility.yul\":6531:6581   */\n      swap1\n      pop\n        /* \"#utility.yul\":6461:6587   */\n      swap2\n      swap1\n      pop\n      jump\t// out\n        /* \"#utility.yul\":6593:6739   */\n    tag_85:\n        /* \"#utility.yul\":6663:6672   */\n      0x00\n        /* \"#utility.yul\":6696:6733   */\n      tag_184\n        /* \"#utility.yul\":6727:6732   */\n      dup3\n        /* \"#utility.yul\":6696:6733   */\n      tag_84\n      jump\t// in\n    tag_184:\n        /* \"#utility.yul\":6683:6733   */\n      swap1\n      pop\n        /* \"#utility.yul\":6593:6739   */\n      swap2\n      swap1\n      pop\n      jump\t// out\n        /* \"#utility.yul\":6745:6916   */\n    tag_86:\n        /* \"#utility.yul\":6852:6909   */\n      tag_186\n        /* \"#utility.yul\":6903:6908   */\n      dup2\n        /* \"#utility.yul\":6852:6909   */\n      tag_85\n      jump\t// in\n    tag_186:\n        /* \"#utility.yul\":6847:6850   */\n      dup3\n        /* \"#utility.yul\":6840:6910   */\n      mstore\n        /* \"#utility.yul\":6745:6916   */\n      pop\n      pop\n      jump\t// out\n        /* \"#utility.yul\":6922:7184   */\n    tag_39:\n        /* \"#utility.yul\":7035:7039   */\n      0x00\n        /* \"#utility.yul\":7073:7075   */\n      0x20\n        /* \"#utility.yul\":7062:7071   */\n      dup3\n        /* \"#utility.yul\":7058:7076   */\n      add\n        /* \"#utility.yul\":7050:7076   */\n      swap1\n      pop\n        /* \"#utility.yul\":7086:7177   */\n      tag_188\n        /* \"#utility.yul\":7174:7175   */\n      0x00\n        /* \"#utility.yul\":7163:7172   */\n      dup4\n        /* \"#utility.yul\":7159:7176   */\n      add\n        /* \"#utility.yul\":7150:7156   */\n      dup5\n        /* \"#utility.yul\":7086:7177   */\n      tag_86\n      jump\t// in\n    tag_188:\n        /* \"#utility.yul\":6922:7184   */\n      swap3\n      swap2\n      pop\n      pop\n      jump\t// out\n        /* \"#utility.yul\":7190:7370   */\n    tag_87:\n        /* \"#utility.yul\":7238:7315   */\n      0x4e487b7100000000000000000000000000000000000000000000000000000000\n        /* \"#utility.yul\":7235:7236   */\n      0x00\n        /* \"#utility.yul\":7228:7316   */\n      mstore\n        /* \"#utility.yul\":7335:7339   */\n      0x22\n        /* \"#utility.yul\":7332:7333   */\n      0x04\n        /* \"#utility.yul\":7325:7340   */\n      mstore\n        /* \"#utility.yul\":7359:7363   */\n      0x24\n        /* \"#utility.yul\":7356:7357   */\n      0x00\n        /* \"#utility.yul\":7349:7364   */\n      revert\n        /* \"#utility.yul\":7376:7696   */\n    tag_47:\n        /* \"#utility.yul\":7420:7426   */\n      0x00\n        /* \"#utility.yul\":7457:7458   */\n      0x02\n        /* \"#utility.yul\":7451:7455   */\n      dup3\n        /* \"#utility.yul\":7447:7459   */\n      div\n        /* \"#utility.yul\":7437:7459   */\n      swap1\n      pop\n        /* \"#utility.yul\":7504:7505   */\n      0x01\n        /* \"#utility.yul\":7498:7502   */\n      dup3\n        /* \"#utility.yul\":7494:7506   */\n      and\n        /* \"#utility.yul\":7525:7543   */\n      dup1\n        /* \"#utility.yul\":7515:7596   */\n      tag_191\n      jumpi\n        /* \"#utility.yul\":7581:7585   */\n      0x7f\n        /* \"#utility.yul\":7573:7579   */\n      dup3\n        /* \"#utility.yul\":7569:7586   */\n      and\n        /* \"#utility.yul\":7559:7586   */\n      swap2\n      pop\n        /* \"#utility.yul\":7515:7596   */\n    tag_191:\n        /* \"#utility.yul\":7643:7645   */\n      0x20\n        /* \"#utility.yul\":7635:7641   */\n      dup3\n        /* \"#utility.yul\":7632:7646   */\n      lt\n        /* \"#utility.yul\":7612:7630   */\n      dup2\n        /* \"#utility.yul\":7609:7647   */\n      sub\n        /* \"#utility.yul\":7606:7690   */\n      tag_192\n      jumpi\n        /* \"#utility.yul\":7662:7680   */\n      tag_193\n      tag_87\n      jump\t// in\n    tag_193:\n        /* \"#utility.yul\":7606:7690   */\n    tag_192:\n        /* \"#utility.yul\":7427:7696   */\n      pop\n        /* \"#utility.yul\":7376:7696   */\n      swap2\n      swap1\n      pop\n      jump\t// out\n        /* \"#utility.yul\":7702:7843   */\n    tag_88:\n        /* \"#utility.yul\":7751:7755   */\n      0x00\n        /* \"#utility.yul\":7774:7777   */\n      dup2\n        /* \"#utility.yul\":7766:7777   */\n      swap1\n      pop\n        /* \"#utility.yul\":7797:7800   */\n      dup2\n        /* \"#utility.yul\":7794:7795   */\n      0x00\n        /* \"#utility.yul\":7787:7801   */\n      mstore\n        /* \"#utility.yul\":7831:7835   */\n      0x20\n        /* \"#utility.yul\":7828:7829   */\n      0x00\n        /* \"#utility.yul\":7818:7836   */\n      keccak256\n        /* \"#utility.yul\":7810:7836   */\n      swap1\n      pop\n        /* \"#utility.yul\":7702:7843   */\n      swap2\n      swap1\n      pop\n      jump\t// out\n        /* \"#utility.yul\":7849:7942   */\n    tag_89:\n        /* \"#utility.yul\":7886:7892   */\n      0x00\n        /* \"#utility.yul\":7933:7935   */\n      0x20\n        /* \"#utility.yul\":7928:7930   */\n      0x1f\n        /* \"#utility.yul\":7921:7926   */\n      dup4\n        /* \"#utility.yul\":7917:7931   */\n      add\n        /* \"#utility.yul\":7913:7936   */\n      div\n        /* \"#utility.yul\":7903:7936   */\n      swap1\n      pop\n        /* \"#utility.yul\":7849:7942   */\n      swap2\n      swap1\n      pop\n      jump\t// out\n        /* \"#utility.yul\":7948:8055   */\n    tag_90:\n        /* \"#utility.yul\":7992:8000   */\n      0x00\n        /* \"#utility.yul\":8042:8047   */\n      dup3\n        /* \"#utility.yul\":8036:8040   */\n      dup3\n        /* \"#utility.yul\":8032:8048   */\n      shl\n        /* \"#utility.yul\":8011:8048   */\n      swap1\n      pop\n        /* \"#utility.yul\":7948:8055   */\n      swap3\n      swap2\n      pop\n      pop\n      jump\t// out\n        /* \"#utility.yul\":8061:8454   */\n    tag_91:\n        /* \"#utility.yul\":8130:8136   */\n      0x00\n        /* \"#utility.yul\":8180:8181   */\n      0x08\n        /* \"#utility.yul\":8168:8178   */\n      dup4\n        /* \"#utility.yul\":8164:8182   */\n      mul\n        /* \"#utility.yul\":8203:8300   */\n      tag_198\n        /* \"#utility.yul\":8233:8299   */\n      0xffffffffffffffffffffffffffffffffffffffffffffffffffffffffffffffff\n        /* \"#utility.yul\":8222:8231   */\n      dup3\n        /* \"#utility.yul\":8203:8300   */\n      tag_90\n      jump\t// in\n    tag_198:\n        /* \"#utility.yul\":8321:8360   */\n      tag_199\n        /* \"#utility.yul\":8351:8359   */\n      dup7\n        /* \"#utility.yul\":8340:8349   */\n      dup4\n        /* \"#utility.yul\":8321:8360   */\n      tag_90\n      jump\t// in\n    tag_199:\n        /* \"#utility.yul\":8309:8360   */\n      swap6\n      pop\n        /* \"#utility.yul\":8393:8397   */\n      dup1\n        /* \"#utility.yul\":8389:8398   */\n      not\n        /* \"#utility.yul\":8382:8387   */\n      dup5\n        /* \"#utility.yul\":8378:8399   */\n      and\n        /* \"#utility.yul\":8369:8399   */\n      swap4\n      pop\n        /* \"#utility.yul\":8442:8446   */\n      dup1\n        /* \"#utility.yul\":8432:8440   */\n      dup7\n        /* \"#utility.yul\":8428:8447   */\n      and\n        /* \"#utility.yul\":8421:8426   */\n      dup5\n        /* \"#utility.yul\":8418:8448   */\n      or\n        /* \"#utility.yul\":8408:8448   */\n      swap3\n      pop\n        /* \"#utility.yul\":8137:8454   */\n      pop\n      pop\n        /* \"#utility.yul\":8061:8454   */\n      swap4\n      swap3\n      pop\n      pop\n      pop\n      jump\t// out\n        /* \"#utility.yul\":8460:8602   */\n    tag_92:\n        /* \"#utility.yul\":8510:8519   */\n      0x00\n        /* \"#utility.yul\":8543:8596   */\n      tag_201\n        /* \"#utility.yul\":8561:8595   */\n      tag_202\n        /* \"#utility.yul\":8570:8594   */\n      tag_203\n        /* \"#utility.yul\":8588:8593   */\n      dup5\n        /* \"#utility.yul\":8570:8594   */\n      tag_60\n      jump\t// in\n    tag_203:\n        /* \"#utility.yul\":8561:8595   */\n      tag_82\n      jump\t// in\n    tag_202:\n        /* \"#utility.yul\":8543:8596   */\n      tag_60\n      jump\t// in\n    tag_201:\n        /* \"#utility.yul\":8530:8596   */\n      swap1\n      pop\n        /* \"#utility.yul\":8460:8602   */\n      swap2\n      swap1\n      pop\n      jump\t// out\n        /* \"#utility.yul\":8608:8683   */\n    tag_93:\n        /* \"#utility.yul\":8651:8654   */\n      0x00\n        /* \"#utility.yul\":8672:8677   */\n      dup2\n        /* \"#utility.yul\":8665:8677   */\n      swap1\n      pop\n        /* \"#utility.yul\":8608:8683   */\n      swap2\n      swap1\n      pop\n      jump\t// out\n        /* \"#utility.yul\":8689:8958   */\n    tag_94:\n        /* \"#utility.yul\":8799:8838   */\n      tag_206\n        /* \"#utility.yul\":8830:8837   */\n      dup4\n        /* \"#utility.yul\":8799:8838   */\n      tag_92\n      jump\t// in\n    tag_206:\n        /* \"#utility.yul\":8860:8951   */\n      tag_207\n        /* \"#utility.yul\":8909:8950   */\n      tag_208\n        /* \"#utility.yul\":8933:8949   */\n      dup3\n        /* \"#utility.yul\":8909:8950   */\n      tag_93\n      jump\t// in\n    tag_208:\n        /* \"#utility.yul\":8901:8907   */\n      dup5\n        /* \"#utility.yul\":8894:8898   */\n      dup5\n        /* \"#utility.yul\":8888:8899   */\n      sload\n        /* \"#utility.yul\":8860:8951   */\n      tag_91\n      jump\t// in\n    tag_207:\n        /* \"#utility.yul\":8854:8858   */\n      dup3\n        /* \"#utility.yul\":8847:8952   */\n      sstore\n        /* \"#utility.yul\":8765:8958   */\n      pop\n        /* \"#utility.yul\":8689:8958   */\n      pop\n      pop\n      pop\n      jump\t// out\n        /* \"#utility.yul\":8964:9037   */\n    tag_95:\n        /* \"#utility.yul\":9009:9012   */\n      0x00\n        /* \"#utility.yul\":8964:9037   */\n      swap1\n      jump\t// out\n        /* \"#utility.yul\":9043:9232   */\n    tag_96:\n        /* \"#utility.yul\":9120:9152   */\n      tag_211\n      tag_95\n      jump\t// in\n    tag_211:\n        /* \"#utility.yul\":9161:9226   */\n      tag_212\n        /* \"#utility.yul\":9219:9225   */\n      dup2\n        /* \"#utility.yul\":9211:9217   */\n      dup5\n        /* \"#utility.yul\":9205:9209   */\n      dup5\n        /* \"#utility.yul\":9161:9226   */\n      tag_94\n      jump\t// in\n    tag_212:\n        /* \"#utility.yul\":9096:9232   */\n      pop\n        /* \"#utility.yul\":9043:9232   */\n      pop\n      pop\n      jump\t// out\n        /* \"#utility.yul\":9238:9424   */\n    tag_97:\n        /* \"#utility.yul\":9298:9418   */\n    tag_214:\n        /* \"#utility.yul\":9315:9318   */\n      dup2\n        /* \"#utility.yul\":9308:9313   */\n      dup2\n        /* \"#utility.yul\":9305:9319   */\n      lt\n        /* \"#utility.yul\":9298:9418   */\n      iszero\n      tag_216\n      jumpi\n        /* \"#utility.yul\":9369:9408   */\n      tag_217\n        /* \"#utility.yul\":9406:9407   */\n      0x00\n        /* \"#utility.yul\":9399:9404   */\n      dup3\n        /* \"#utility.yul\":9369:9408   */\n      tag_96\n      jump\t// in\n    tag_217:\n        /* \"#utility.yul\":9342:9343   */\n      0x01\n        /* \"#utility.yul\":9335:9340   */\n      dup2\n        /* \"#utility.yul\":9331:9344   */\n      add\n        /* \"#utility.yul\":9322:9344   */\n      swap1\n      pop\n        /* \"#utility.yul\":9298:9418   */\n      jump(tag_214)\n    tag_216:\n        /* \"#utility.yul\":9238:9424   */\n      pop\n      pop\n      jump\t// out\n        /* \"#utility.yul\":9430:9973   */\n    tag_98:\n        /* \"#utility.yul\":9531:9533   */\n      0x1f\n        /* \"#utility.yul\":9526:9529   */\n      dup3\n        /* \"#utility.yul\":9523:9534   */\n      gt\n        /* \"#utility.yul\":9520:9966   */\n      iszero\n      tag_219\n      jumpi\n        /* \"#utility.yul\":9565:9603   */\n      tag_220\n        /* \"#utility.yul\":9597:9602   */\n      dup2\n        /* \"#utility.yul\":9565:9603   */\n      tag_88\n      jump\t// in\n    tag_220:\n        /* \"#utility.yul\":9649:9678   */\n      tag_221\n        /* \"#utility.yul\":9667:9677   */\n      dup5\n        /* \"#utility.yul\":9649:9678   */\n      tag_89\n      jump\t// in\n    tag_221:\n        /* \"#utility.yul\":9639:9647   */\n      dup2\n        /* \"#utility.yul\":9635:9679   */\n      add\n        /* \"#utility.yul\":9832:9834   */\n      0x20\n        /* \"#utility.yul\":9820:9830   */\n      dup6\n        /* \"#utility.yul\":9817:9835   */\n      lt\n        /* \"#utility.yul\":9814:9863   */\n      iszero\n      tag_222\n      jumpi\n        /* \"#utility.yul\":9853:9861   */\n      dup2\n        /* \"#utility.yul\":9838:9861   */\n      swap1\n      pop\n        /* \"#utility.yul\":9814:9863   */\n    tag_222:\n        /* \"#utility.yul\":9876:9956   */\n      tag_223\n        /* \"#utility.yul\":9932:9954   */\n      tag_224\n        /* \"#utility.yul\":9950:9953   */\n      dup6\n        /* \"#utility.yul\":9932:9954   */\n      tag_89\n      jump\t// in\n    tag_224:\n        /* \"#utility.yul\":9922:9930   */\n      dup4\n        /* \"#utility.yul\":9918:9955   */\n      add\n        /* \"#utility.yul\":9905:9916   */\n      dup3\n        /* \"#utility.yul\":9876:9956   */\n      tag_97\n      jump\t// in\n    tag_223:\n        /* \"#utility.yul\":9535:9966   */\n      pop\n      pop\n        /* \"#utility.yul\":9520:9966   */\n    tag_219:\n        /* \"#utility.yul\":9430:9973   */\n      pop\n      pop\n      pop\n      jump\t// out\n        /* \"#utility.yul\":9979:10096   */\n    tag_99:\n        /* \"#utility.yul\":10033:10041   */\n      0x00\n        /* \"#utility.yul\":10083:10088   */\n      dup3\n        /* \"#utility.yul\":10077:10081   */\n      dup3\n        /* \"#utility.yul\":10073:10089   */\n      shr\n        /* \"#utility.yul\":10052:10089   */\n      swap1\n      pop\n        /* \"#utility.yul\":9979:10096   */\n      swap3\n      swap2\n      pop\n      pop\n      jump\t// out\n        /* \"#utility.yul\":10102:10271   */\n    tag_100:\n        /* \"#utility.yul\":10146:10152   */\n      0x00\n        /* \"#utility.yul\":10179:10230   */\n      tag_227\n        /* \"#utility.yul\":10227:10228   */\n      0x00\n        /* \"#utility.yul\":10223:10229   */\n      not\n        /* \"#utility.yul\":10215:10220   */\n      dup5\n        /* \"#utility.yul\":10212:10213   */\n      0x08\n        /* \"#utility.yul\":10208:10221   */\n      mul\n        /* \"#utility.yul\":10179:10230   */\n      tag_99\n      jump\t// in\n    tag_227:\n        /* \"#utility.yul\":10175:10231   */\n      not\n        /* \"#utility.yul\":10260:10264   */\n      dup1\n        /* \"#utility.yul\":10254:10258   */\n      dup4\n        /* \"#utility.yul\":10250:10265   */\n      and\n        /* \"#utility.yul\":10240:10265   */\n      swap2\n      pop\n        /* \"#utility.yul\":10153:10271   */\n      pop\n        /* \"#utility.yul\":10102:10271   */\n      swap3\n      swap2\n      pop\n      pop\n      jump\t// out\n        /* \"#utility.yul\":10276:10571   */\n    tag_101:\n        /* \"#utility.yul\":10352:10356   */\n      0x00\n        /* \"#utility.yul\":10498:10527   */\n      tag_229\n        /* \"#utility.yul\":10523:10526   */\n      dup4\n        /* \"#utility.yul\":10517:10521   */\n      dup4\n        /* \"#utility.yul\":10498:10527   */\n      tag_100\n      jump\t// in\n    tag_229:\n        /* \"#utility.yul\":10490:10527   */\n      swap2\n      pop\n        /* \"#utility.yul\":10560:10563   */\n      dup3\n        /* \"#utility.yul\":10557:10558   */\n      0x02\n        /* \"#utility.yul\":10553:10564   */\n      mul\n        /* \"#utility.yul\":10547:10551   */\n      dup3\n        /* \"#utility.yul\":10544:10565   */\n      or\n        /* \"#utility.yul\":10536:10565   */\n      swap1\n      pop\n        /* \"#utility.yul\":10276:10571   */\n      swap3\n      swap2\n      pop\n      pop\n      jump\t// out\n        /* \"#utility.yul\":10576:11971   */\n    tag_56:\n        /* \"#utility.yul\":10693:10730   */\n      tag_231\n        /* \"#utility.yul\":10726:10729   */\n      dup3\n        /* \"#utility.yul\":10693:10730   */\n      tag_67\n      jump\t// in\n    tag_231:\n        /* \"#utility.yul\":10795:10813   */\n      0xffffffffffffffff\n        /* \"#utility.yul\":10787:10793   */\n      dup2\n        /* \"#utility.yul\":10784:10814   */\n      gt\n        /* \"#utility.yul\":10781:10837   */\n      iszero\n      tag_232\n      jumpi\n        /* \"#utility.yul\":10817:10835   */\n      tag_233\n      tag_74\n      jump\t// in\n    tag_233:\n        /* \"#utility.yul\":10781:10837   */\n    tag_232:\n        /* \"#utility.yul\":10861:10899   */\n      tag_234\n        /* \"#utility.yul\":10893:10897   */\n      dup3\n        /* \"#utility.yul\":10887:10898   */\n      sload\n        /* \"#utility.yul\":10861:10899   */\n      tag_47\n      jump\t// in\n    tag_234:\n        /* \"#utility.yul\":10946:11013   */\n      tag_235\n        /* \"#utility.yul\":11006:11012   */\n      dup3\n        /* \"#utility.yul\":10998:11004   */\n      dup3\n        /* \"#utility.yul\":10992:10996   */\n      dup6\n        /* \"#utility.yul\":10946:11013   */\n      tag_98\n      jump\t// in\n    tag_235:\n        /* \"#utility.yul\":11040:11041   */\n      0x00\n        /* \"#utility.yul\":11064:11068   */\n      0x20\n        /* \"#utility.yul\":11051:11068   */\n      swap1\n      pop\n        /* \"#utility.yul\":11096:11098   */\n      0x1f\n        /* \"#utility.yul\":11088:11094   */\n      dup4\n        /* \"#utility.yul\":11085:11099   */\n      gt\n        /* \"#utility.yul\":11113:11114   */\n      0x01\n        /* \"#utility.yul\":11108:11726   */\n      dup2\n      eq\n      tag_237\n      jumpi\n        /* \"#utility.yul\":11770:11771   */\n      0x00\n        /* \"#utility.yul\":11787:11793   */\n      dup5\n        /* \"#utility.yul\":11784:11861   */\n      iszero\n      tag_238\n      jumpi\n        /* \"#utility.yul\":11836:11845   */\n      dup3\n        /* \"#utility.yul\":11831:11834   */\n      dup8\n        /* \"#utility.yul\":11827:11846   */\n      add\n        /* \"#utility.yul\":11821:11847   */\n      mload\n        /* \"#utility.yul\":11812:11847   */\n      swap1\n      pop\n        /* \"#utility.yul\":11784:11861   */\n    tag_238:\n        /* \"#utility.yul\":11887:11954   */\n      tag_239\n        /* \"#utility.yul\":11947:11953   */\n      dup6\n        /* \"#utility.yul\":11940:11945   */\n      dup3\n        /* \"#utility.yul\":11887:11954   */\n      tag_101\n      jump\t// in\n    tag_239:\n        /* \"#utility.yul\":11881:11885   */\n      dup7\n        /* \"#utility.yul\":11874:11955   */\n      sstore\n        /* \"#utility.yul\":11743:11965   */\n      pop\n        /* \"#utility.yul\":11078:11965   */\n      jump(tag_236)\n        /* \"#utility.yul\":11108:11726   */\n    tag_237:\n        /* \"#utility.yul\":11160:11164   */\n      0x1f\n        /* \"#utility.yul\":11156:11165   */\n      not\n        /* \"#utility.yul\":11148:11154   */\n      dup5\n        /* \"#utility.yul\":11144:11166   */\n      and\n        /* \"#utility.yul\":11194:11231   */\n      tag_240\n        /* \"#utility.yul\":11226:11230   */\n      dup7\n        /* \"#utility.yul\":11194:11231   */\n      tag_88\n      jump\t// in\n    tag_240:\n        /* \"#utility.yul\":11253:11254   */\n      0x00\n        /* \"#utility.yul\":11267:11475   */\n    tag_241:\n        /* \"#utility.yul\":11281:11288   */\n      dup3\n        /* \"#utility.yul\":11278:11279   */\n      dup2\n        /* \"#utility.yul\":11275:11289   */\n      lt\n        /* \"#utility.yul\":11267:11475   */\n      iszero\n      tag_243\n      jumpi\n        /* \"#utility.yul\":11360:11369   */\n      dup5\n        /* \"#utility.yul\":11355:11358   */\n      dup10\n        /* \"#utility.yul\":11351:11370   */\n      add\n        /* \"#utility.yul\":11345:11371   */\n      mload\n        /* \"#utility.yul\":11337:11343   */\n      dup3\n        /* \"#utility.yul\":11330:11372   */\n      sstore\n        /* \"#utility.yul\":11411:11412   */\n      0x01\n        /* \"#utility.yul\":11403:11409   */\n      dup3\n        /* \"#utility.yul\":11399:11413   */\n      add\n        /* \"#utility.yul\":11389:11413   */\n      swap2\n      pop\n        /* \"#utility.yul\":11458:11460   */\n      0x20\n        /* \"#utility.yul\":11447:11456   */\n      dup6\n        /* \"#utility.yul\":11443:11461   */\n      add\n        /* \"#utility.yul\":11430:11461   */\n      swap5\n      pop\n        /* \"#utility.yul\":11304:11308   */\n      0x20\n        /* \"#utility.yul\":11301:11302   */\n      dup2\n        /* \"#utility.yul\":11297:11309   */\n      add\n        /* \"#utility.yul\":11292:11309   */\n      swap1\n      pop\n        /* \"#utility.yul\":11267:11475   */\n      jump(tag_241)\n    tag_243:\n        /* \"#utility.yul\":11503:11509   */\n      dup7\n        /* \"#utility.yul\":11494:11501   */\n      dup4\n        /* \"#utility.yul\":11491:11510   */\n      lt\n        /* \"#utility.yul\":11488:11667   */\n      iszero\n      tag_244\n      jumpi\n        /* \"#utility.yul\":11561:11570   */\n      dup5\n        /* \"#utility.yul\":11556:11559   */\n      dup10\n        /* \"#utility.yul\":11552:11571   */\n      add\n        /* \"#utility.yul\":11546:11572   */\n      mload\n        /* \"#utility.yul\":11604:11652   */\n      tag_245\n        /* \"#utility.yul\":11646:11650   */\n      0x1f\n        /* \"#utility.yul\":11638:11644   */\n      dup10\n        /* \"#utility.yul\":11634:11651   */\n      and\n        /* \"#utility.yul\":11623:11632   */\n      dup3\n        /* \"#utility.yul\":11604:11652   */\n      tag_100\n      jump\t// in\n    tag_245:\n        /* \"#utility.yul\":11596:11602   */\n      dup4\n        /* \"#utility.yul\":11589:11653   */\n      sstore\n        /* \"#utility.yul\":11511:11667   */\n      pop\n        /* \"#utility.yul\":11488:11667   */\n    tag_244:\n        /* \"#utility.yul\":11713:11714   */\n      0x01\n        /* \"#utility.yul\":11709:11710   */\n      0x02\n        /* \"#utility.yul\":11701:11707   */\n      dup9\n        /* \"#utility.yul\":11697:11711   */\n      mul\n        /* \"#utility.yul\":11693:11715   */\n      add\n        /* \"#utility.yul\":11687:11691   */\n      dup9\n        /* \"#utility.yul\":11680:11716   */\n      sstore\n        /* \"#utility.yul\":11115:11726   */\n      pop\n      pop\n      pop\n        /* \"#utility.yul\":11078:11965   */\n    tag_236:\n      pop\n        /* \"#utility.yul\":10668:11971   */\n      pop\n      pop\n      pop\n        /* \"#utility.yul\":10576:11971   */\n      pop\n      pop\n      jump\t// out\n        /* \"#utility.yul\":11977:12125   */\n    tag_102:\n        /* \"#utility.yul\":12079:12090   */\n      0x00\n        /* \"#utility.yul\":12116:12119   */\n      dup2\n        /* \"#utility.yul\":12101:12119   */\n      swap1\n      pop\n        /* \"#utility.yul\":11977:12125   */\n      swap3\n      swap2\n      pop\n      pop\n      jump\t// out\n        /* \"#utility.yul\":12131:12521   */\n    tag_103:\n        /* \"#utility.yul\":12237:12240   */\n      0x00\n        /* \"#utility.yul\":12265:12304   */\n      tag_248\n        /* \"#utility.yul\":12298:12303   */\n      dup3\n        /* \"#utility.yul\":12265:12304   */\n      tag_67\n      jump\t// in\n    tag_248:\n        /* \"#utility.yul\":12320:12409   */\n      tag_249\n        /* \"#utility.yul\":12402:12408   */\n      dup2\n        /* \"#utility.yul\":12397:12400   */\n      dup6\n        /* \"#utility.yul\":12320:12409   */\n      tag_102\n      jump\t// in\n    tag_249:\n        /* \"#utility.yul\":12313:12409   */\n      swap4\n      pop\n        /* \"#utility.yul\":12418:12483   */\n      tag_250\n        /* \"#utility.yul\":12476:12482   */\n      dup2\n        /* \"#utility.yul\":12471:12474   */\n      dup6\n        /* \"#utility.yul\":12464:12468   */\n      0x20\n        /* \"#utility.yul\":12457:12462   */\n      dup7\n        /* \"#utility.yul\":12453:12469   */\n      add\n        /* \"#utility.yul\":12418:12483   */\n      tag_69\n      jump\t// in\n    tag_250:\n        /* \"#utility.yul\":12508:12514   */\n      dup1\n        /* \"#utility.yul\":12503:12506   */\n      dup5\n        /* \"#utility.yul\":12499:12515   */\n      add\n        /* \"#utility.yul\":12492:12515   */\n      swap2\n      pop\n        /* \"#utility.yul\":12241:12521   */\n      pop\n        /* \"#utility.yul\":12131:12521   */\n      swap3\n      swap2\n      pop\n      pop\n      jump\t// out\n        /* \"#utility.yul\":12527:12802   */\n    tag_58:\n        /* \"#utility.yul\":12659:12662   */\n      0x00\n        /* \"#utility.yul\":12681:12776   */\n      tag_252\n        /* \"#utility.yul\":12772:12775   */\n      dup3\n        /* \"#utility.yul\":12763:12769   */\n      dup5\n        /* \"#utility.yul\":12681:12776   */\n      tag_103\n      jump\t// in\n    tag_252:\n        /* \"#utility.yul\":12674:12776   */\n      swap2\n      pop\n        /* \"#utility.yul\":12793:12796   */\n      dup2\n        /* \"#utility.yul\":12786:12796   */\n      swap1\n      pop\n        /* \"#utility.yul\":12527:12802   */\n      swap3\n      swap2\n      pop\n      pop\n      jump\t// out\n\n    auxdata: 0xa2646970667358221220d34c1514f77ebfb6144549efe003a7d0b5550006be29b70597fdc56037f7876b64736f6c63430008130033\n}\n",
				"bytecode": {
					"linkReferences": {},
					"object": "608060405234801561001057600080fd5b50610a70806100206000396000f3fe608060405234801561001057600080fd5b50600436106100885760003560e01c80636f760f411161005b5780636f760f41146101285780639fa05b2814610144578063e5b3018b1461014e578063ee461d151461016c57610088565b80632e64cec11461008d5780632ebce631146100ab57806343ec8f47146100dc5780636057361d1461010c575b600080fd5b61009561018a565b6040516100a29190610357565b60405180910390f35b6100c560048036038101906100c091906103b2565b610193565b6040516100d392919061046f565b60405180910390f35b6100f660048036038101906100f191906105d4565b61024f565b6040516101039190610357565b60405180910390f35b610126600480360381019061012191906103b2565b61027d565b005b610142600480360381019061013d919061061d565b610287565b005b61014c610310565b005b610156610312565b60405161016391906106f8565b60405180910390f35b610174610338565b6040516101819190610357565b60405180910390f35b60008054905090565b600281815481106101a357600080fd5b90600052602060002090600202016000915090508060000154908060010180546101cc90610742565b80601f01602080910402602001604051908101604052809291908181526020018280546101f890610742565b80156102455780601f1061021a57610100808354040283529160200191610245565b820191906000526020600020905b81548152906001019060200180831161022857829003601f168201915b5050505050905082565b6003818051602081018201805184825260208301602085012081835280955050505050506000915090505481565b8060008190555050565b600260405180604001604052808381526020018481525090806001815401808255809150506001900390600052602060002090600202016000909190919091506000820151816000015560208201518160010190816102e69190610915565b505050806003836040516102fa9190610a23565b9081526020016040518091039020819055505050565b565b600460009054906101000a900473ffffffffffffffffffffffffffffffffffffffff1681565b60005481565b6000819050919050565b6103518161033e565b82525050565b600060208201905061036c6000830184610348565b92915050565b6000604051905090565b600080fd5b600080fd5b61038f8161033e565b811461039a57600080fd5b50565b6000813590506103ac81610386565b92915050565b6000602082840312156103c8576103c761037c565b5b60006103d68482850161039d565b91505092915050565b600081519050919050565b600082825260208201905092915050565b60005b838110156104195780820151818401526020810190506103fe565b60008484015250505050565b6000601f19601f8301169050919050565b6000610441826103df565b61044b81856103ea565b935061045b8185602086016103fb565b61046481610425565b840191505092915050565b60006040820190506104846000830185610348565b81810360208301526104968184610436565b90509392505050565b600080fd5b600080fd5b7f4e487b7100000000000000000000000000000000000000000000000000000000600052604160045260246000fd5b6104e182610425565b810181811067ffffffffffffffff82111715610500576104ff6104a9565b5b80604052505050565b6000610513610372565b905061051f82826104d8565b919050565b600067ffffffffffffffff82111561053f5761053e6104a9565b5b61054882610425565b9050602081019050919050565b82818337600083830152505050565b600061057761057284610524565b610509565b905082815260208101848484011115610593576105926104a4565b5b61059e848285610555565b509392505050565b600082601f8301126105bb576105ba61049f565b5b81356105cb848260208601610564565b91505092915050565b6000602082840312156105ea576105e961037c565b5b600082013567ffffffffffffffff81111561060857610607610381565b5b610614848285016105a6565b91505092915050565b600080604083850312156106345761063361037c565b5b600083013567ffffffffffffffff81111561065257610651610381565b5b61065e858286016105a6565b925050602061066f8582860161039d565b9150509250929050565b600073ffffffffffffffffffffffffffffffffffffffff82169050919050565b6000819050919050565b60006106be6106b96106b484610679565b610699565b610679565b9050919050565b60006106d0826106a3565b9050919050565b60006106e2826106c5565b9050919050565b6106f2816106d7565b82525050565b600060208201905061070d60008301846106e9565b92915050565b7f4e487b7100000000000000000000000000000000000000000000000000000000600052602260045260246000fd5b6000600282049050600182168061075a57607f821691505b60208210810361076d5761076c610713565b5b50919050565b60008190508160005260206000209050919050565b60006020601f8301049050919050565b600082821b905092915050565b6000600883026107d57fffffffffffffffffffffffffffffffffffffffffffffffffffffffffffffffff82610798565b6107df8683610798565b95508019841693508086168417925050509392505050565b600061081261080d6108088461033e565b610699565b61033e565b9050919050565b6000819050919050565b61082c836107f7565b61084061083882610819565b8484546107a5565b825550505050565b600090565b610855610848565b610860818484610823565b505050565b5b818110156108845761087960008261084d565b600181019050610866565b5050565b601f8211156108c95761089a81610773565b6108a384610788565b810160208510156108b2578190505b6108c66108be85610788565b830182610865565b50505b505050565b600082821c905092915050565b60006108ec600019846008026108ce565b1980831691505092915050565b600061090583836108db565b9150826002028217905092915050565b61091e826103df565b67ffffffffffffffff811115610937576109366104a9565b5b6109418254610742565b61094c828285610888565b600060209050601f83116001811461097f576000841561096d578287015190505b61097785826108f9565b8655506109df565b601f19841661098d86610773565b60005b828110156109b557848901518255600182019150602085019450602081019050610990565b868310156109d257848901516109ce601f8916826108db565b8355505b6001600288020188555050505b505050505050565b600081905092915050565b60006109fd826103df565b610a0781856109e7565b9350610a178185602086016103fb565b80840191505092915050565b6000610a2f82846109f2565b91508190509291505056fea2646970667358221220d34c1514f77ebfb6144549efe003a7d0b5550006be29b70597fdc56037f7876b64736f6c63430008130033",
					"opcodes": "PUSH1 0x80 PUSH1 0x40 MSTORE CALLVALUE DUP1 ISZERO PUSH2 0x10 JUMPI PUSH1 0x0 DUP1 REVERT JUMPDEST POP PUSH2 0xA70 DUP1 PUSH2 0x20 PUSH1 0x0 CODECOPY PUSH1 0x0 RETURN INVALID PUSH1 0x80 PUSH1 0x40 MSTORE CALLVALUE DUP1 ISZERO PUSH2 0x10 JUMPI PUSH1 0x0 DUP1 REVERT JUMPDEST POP PUSH1 0x4 CALLDATASIZE LT PUSH2 0x88 JUMPI PUSH1 0x0 CALLDATALOAD PUSH1 0xE0 SHR DUP1 PUSH4 0x6F760F41 GT PUSH2 0x5B JUMPI DUP1 PUSH4 0x6F760F41 EQ PUSH2 0x128 JUMPI DUP1 PUSH4 0x9FA05B28 EQ PUSH2 0x144 JUMPI DUP1 PUSH4 0xE5B3018B EQ PUSH2 0x14E JUMPI DUP1 PUSH4 0xEE461D15 EQ PUSH2 0x16C JUMPI PUSH2 0x88 JUMP JUMPDEST DUP1 PUSH4 0x2E64CEC1 EQ PUSH2 0x8D JUMPI DUP1 PUSH4 0x2EBCE631 EQ PUSH2 0xAB JUMPI DUP1 PUSH4 0x43EC8F47 EQ PUSH2 0xDC JUMPI DUP1 PUSH4 0x6057361D EQ PUSH2 0x10C JUMPI JUMPDEST PUSH1 0x0 DUP1 REVERT JUMPDEST PUSH2 0x95 PUSH2 0x18A JUMP JUMPDEST PUSH1 0x40 MLOAD PUSH2 0xA2 SWAP2 SWAP1 PUSH2 0x357 JUMP JUMPDEST PUSH1 0x40 MLOAD DUP1 SWAP2 SUB SWAP1 RETURN JUMPDEST PUSH2 0xC5 PUSH1 0x4 DUP1 CALLDATASIZE SUB DUP2 ADD SWAP1 PUSH2 0xC0 SWAP2 SWAP1 PUSH2 0x3B2 JUMP JUMPDEST PUSH2 0x193 JUMP JUMPDEST PUSH1 0x40 MLOAD PUSH2 0xD3 SWAP3 SWAP2 SWAP1 PUSH2 0x46F JUMP JUMPDEST PUSH1 0x40 MLOAD DUP1 SWAP2 SUB SWAP1 RETURN JUMPDEST PUSH2 0xF6 PUSH1 0x4 DUP1 CALLDATASIZE SUB DUP2 ADD SWAP1 PUSH2 0xF1 SWAP2 SWAP1 PUSH2 0x5D4 JUMP JUMPDEST PUSH2 0x24F JUMP JUMPDEST PUSH1 0x40 MLOAD PUSH2 0x103 SWAP2 SWAP1 PUSH2 0x357 JUMP JUMPDEST PUSH1 0x40 MLOAD DUP1 SWAP2 SUB SWAP1 RETURN JUMPDEST PUSH2 0x126 PUSH1 0x4 DUP1 CALLDATASIZE SUB DUP2 ADD SWAP1 PUSH2 0x121 SWAP2 SWAP1 PUSH2 0x3B2 JUMP JUMPDEST PUSH2 0x27D JUMP JUMPDEST STOP JUMPDEST PUSH2 0x142 PUSH1 0x4 DUP1 CALLDATASIZE SUB DUP2 ADD SWAP1 PUSH2 0x13D SWAP2 SWAP1 PUSH2 0x61D JUMP JUMPDEST PUSH2 0x287 JUMP JUMPDEST STOP JUMPDEST PUSH2 0x14C PUSH2 0x310 JUMP JUMPDEST STOP JUMPDEST PUSH2 0x156 PUSH2 0x312 JUMP JUMPDEST PUSH1 0x40 MLOAD PUSH2 0x163 SWAP2 SWAP1 PUSH2 0x6F8 JUMP JUMPDEST PUSH1 0x40 MLOAD DUP1 SWAP2 SUB SWAP1 RETURN JUMPDEST PUSH2 0x174 PUSH2 0x338 JUMP JUMPDEST PUSH1 0x40 MLOAD PUSH2 0x181 SWAP2 SWAP1 PUSH2 0x357 JUMP JUMPDEST PUSH1 0x40 MLOAD DUP1 SWAP2 SUB SWAP1 RETURN JUMPDEST PUSH1 0x0 DUP1 SLOAD SWAP1 POP SWAP1 JUMP JUMPDEST PUSH1 0x2 DUP2 DUP2 SLOAD DUP2 LT PUSH2 0x1A3 JUMPI PUSH1 0x0 DUP1 REVERT JUMPDEST SWAP1 PUSH1 0x0 MSTORE PUSH1 0x20 PUSH1 0x0 KECCAK256 SWAP1 PUSH1 0x2 MUL ADD PUSH1 0x0 SWAP2 POP SWAP1 POP DUP1 PUSH1 0x0 ADD SLOAD SWAP1 DUP1 PUSH1 0x1 ADD DUP1 SLOAD PUSH2 0x1CC SWAP1 PUSH2 0x742 JUMP JUMPDEST DUP1 PUSH1 0x1F ADD PUSH1 0x20 DUP1 SWAP2 DIV MUL PUSH1 0x20 ADD PUSH1 0x40 MLOAD SWAP1 DUP2 ADD PUSH1 0x40 MSTORE DUP1 SWAP3 SWAP2 SWAP1 DUP2 DUP2 MSTORE PUSH1 0x20 ADD DUP3 DUP1 SLOAD PUSH2 0x1F8 SWAP1 PUSH2 0x742 JUMP JUMPDEST DUP1 ISZERO PUSH2 0x245 JUMPI DUP1 PUSH1 0x1F LT PUSH2 0x21A JUMPI PUSH2 0x100 DUP1 DUP4 SLOAD DIV MUL DUP4 MSTORE SWAP2 PUSH1 0x20 ADD SWAP2 PUSH2 0x245 JUMP JUMPDEST DUP3 ADD SWAP2 SWAP1 PUSH1 0x0 MSTORE PUSH1 0x20 PUSH1 0x0 KECCAK256 SWAP1 JUMPDEST DUP2 SLOAD DUP2 MSTORE SWAP1 PUSH1 0x1 ADD SWAP1 PUSH1 0x20 ADD DUP1 DUP4 GT PUSH2 0x228 JUMPI DUP3 SWAP1 SUB PUSH1 0x1F AND DUP3 ADD SWAP2 JUMPDEST POP POP POP POP POP SWAP1 POP DUP3 JUMP JUMPDEST PUSH1 0x3 DUP2 DUP1 MLOAD PUSH1 0x20 DUP2 ADD DUP3 ADD DUP1 MLOAD DUP5 DUP3 MSTORE PUSH1 0x20 DUP4 ADD PUSH1 0x20 DUP6 ADD KECCAK256 DUP2 DUP4 MSTORE DUP1 SWAP6 POP POP POP POP POP POP PUSH1 0x0 SWAP2 POP SWAP1 POP SLOAD DUP2 JUMP JUMPDEST DUP1 PUSH1 0x0 DUP2 SWAP1 SSTORE POP POP JUMP JUMPDEST PUSH1 0x2 PUSH1 0x40 MLOAD DUP1 PUSH1 0x40 ADD PUSH1 0x40 MSTORE DUP1 DUP4 DUP2 MSTORE PUSH1 0x20 ADD DUP5 DUP2 MSTORE POP SWAP1 DUP1 PUSH1 0x1 DUP2 SLOAD ADD DUP1 DUP3 SSTORE DUP1 SWAP2 POP POP PUSH1 0x1 SWAP1 SUB SWAP1 PUSH1 0x0 MSTORE PUSH1 0x20 PUSH1 0x0 KECCAK256 SWAP1 PUSH1 0x2 MUL ADD PUSH1 0x0 SWAP1 SWAP2 SWAP1 SWAP2 SWAP1 SWAP2 POP PUSH1 0x0 DUP3 ADD MLOAD DUP2 PUSH1 0x0 ADD SSTORE PUSH1 0x20 DUP3 ADD MLOAD DUP2 PUSH1 0x1 ADD SWAP1 DUP2 PUSH2 0x2E6 SWAP2 SWAP1 PUSH2 0x915 JUMP JUMPDEST POP POP POP DUP1 PUSH1 0x3 DUP4 PUSH1 0x40 MLOAD PUSH2 0x2FA SWAP2 SWAP1 PUSH2 0xA23 JUMP JUMPDEST SWAP1 DUP2 MSTORE PUSH1 0x20 ADD PUSH1 0x40 MLOAD DUP1 SWAP2 SUB SWAP1 KECCAK256 DUP2 SWAP1 SSTORE POP POP POP JUMP JUMPDEST JUMP JUMPDEST PUSH1 0x4 PUSH1 0x0 SWAP1 SLOAD SWAP1 PUSH2 0x100 EXP SWAP1 DIV PUSH20 0xFFFFFFFFFFFFFFFFFFFFFFFFFFFFFFFFFFFFFFFF AND DUP2 JUMP JUMPDEST PUSH1 0x0 SLOAD DUP2 JUMP JUMPDEST PUSH1 0x0 DUP2 SWAP1 POP SWAP2 SWAP1 POP JUMP JUMPDEST PUSH2 0x351 DUP2 PUSH2 0x33E JUMP JUMPDEST DUP3 MSTORE POP POP JUMP JUMPDEST PUSH1 0x0 PUSH1 0x20 DUP3 ADD SWAP1 POP PUSH2 0x36C PUSH1 0x0 DUP4 ADD DUP5 PUSH2 0x348 JUMP JUMPDEST SWAP3 SWAP2 POP POP JUMP JUMPDEST PUSH1 0x0 PUSH1 0x40 MLOAD SWAP1 POP SWAP1 JUMP JUMPDEST PUSH1 0x0 DUP1 REVERT JUMPDEST PUSH1 0x0 DUP1 REVERT JUMPDEST PUSH2 0x38F DUP2 PUSH2 0x33E JUMP JUMPDEST DUP2 EQ PUSH2 0x39A JUMPI PUSH1 0x0 DUP1 REVERT JUMPDEST POP JUMP JUMPDEST PUSH1 0x0 DUP2 CALLDATALOAD SWAP1 POP PUSH2 0x3AC DUP2 PUSH2 0x386 JUMP JUMPDEST SWAP3 SWAP2 POP POP JUMP JUMPDEST PUSH1 0x0 PUSH1 0x20 DUP3 DUP5 SUB SLT ISZERO PUSH2 0x3C8 JUMPI PUSH2 0x3C7 PUSH2 0x37C JUMP JUMPDEST JUMPDEST PUSH1 0x0 PUSH2 0x3D6 DUP5 DUP3 DUP6 ADD PUSH2 0x39D JUMP JUMPDEST SWAP2 POP POP SWAP3 SWAP2 POP POP JUMP JUMPDEST PUSH1 0x0 DUP2 MLOAD SWAP1 POP SWAP2 SWAP1 POP JUMP JUMPDEST PUSH1 0x0 DUP3 DUP3 MSTORE PUSH1 0x20 DUP3 ADD SWAP1 POP SWAP3 SWAP2 POP POP JUMP JUMPDEST PUSH1 0x0 JUMPDEST DUP4 DUP2 LT ISZERO PUSH2 0x419 JUMPI DUP1 DUP3 ADD MLOAD DUP2 DUP5 ADD MSTORE PUSH1 0x20 DUP2 ADD SWAP1 POP PUSH2 0x3FE JUMP JUMPDEST PUSH1 0x0 DUP5 DUP5 ADD MSTORE POP POP POP POP JUMP JUMPDEST PUSH1 0x0 PUSH1 0x1F NOT PUSH1 0x1F DUP4 ADD AND SWAP1 POP SWAP2 SWAP1 POP JUMP JUMPDEST PUSH1 0x0 PUSH2 0x441 DUP3 PUSH2 0x3DF JUMP JUMPDEST PUSH2 0x44B DUP2 DUP6 PUSH2 0x3EA JUMP JUMPDEST SWAP4 POP PUSH2 0x45B DUP2 DUP6 PUSH1 0x20 DUP7 ADD PUSH2 0x3FB JUMP JUMPDEST PUSH2 0x464 DUP2 PUSH2 0x425 JUMP JUMPDEST DUP5 ADD SWAP2 POP POP SWAP3 SWAP2 POP POP JUMP JUMPDEST PUSH1 0x0 PUSH1 0x40 DUP3 ADD SWAP1 POP PUSH2 0x484 PUSH1 0x0 DUP4 ADD DUP6 PUSH2 0x348 JUMP JUMPDEST DUP2 DUP2 SUB PUSH1 0x20 DUP4 ADD MSTORE PUSH2 0x496 DUP2 DUP5 PUSH2 0x436 JUMP JUMPDEST SWAP1 POP SWAP4 SWAP3 POP POP POP JUMP JUMPDEST PUSH1 0x0 DUP1 REVERT JUMPDEST PUSH1 0x0 DUP1 REVERT JUMPDEST PUSH32 0x4E487B7100000000000000000000000000000000000000000000000000000000 PUSH1 0x0 MSTORE PUSH1 0x41 PUSH1 0x4 MSTORE PUSH1 0x24 PUSH1 0x0 REVERT JUMPDEST PUSH2 0x4E1 DUP3 PUSH2 0x425 JUMP JUMPDEST DUP2 ADD DUP2 DUP2 LT PUSH8 0xFFFFFFFFFFFFFFFF DUP3 GT OR ISZERO PUSH2 0x500 JUMPI PUSH2 0x4FF PUSH2 0x4A9 JUMP JUMPDEST JUMPDEST DUP1 PUSH1 0x40 MSTORE POP POP POP JUMP JUMPDEST PUSH1 0x0 PUSH2 0x513 PUSH2 0x372 JUMP JUMPDEST SWAP1 POP PUSH2 0x51F DUP3 DUP3 PUSH2 0x4D8 JUMP JUMPDEST SWAP2 SWAP1 POP JUMP JUMPDEST PUSH1 0x0 PUSH8 0xFFFFFFFFFFFFFFFF DUP3 GT ISZERO PUSH2 0x53F JUMPI PUSH2 0x53E PUSH2 0x4A9 JUMP JUMPDEST JUMPDEST PUSH2 0x548 DUP3 PUSH2 0x425 JUMP JUMPDEST SWAP1 POP PUSH1 0x20 DUP2 ADD SWAP1 POP SWAP2 SWAP1 POP JUMP JUMPDEST DUP3 DUP2 DUP4 CALLDATACOPY PUSH1 0x0 DUP4 DUP4 ADD MSTORE POP POP POP JUMP JUMPDEST PUSH1 0x0 PUSH2 0x577 PUSH2 0x572 DUP5 PUSH2 0x524 JUMP JUMPDEST PUSH2 0x509 JUMP JUMPDEST SWAP1 POP DUP3 DUP2 MSTORE PUSH1 0x20 DUP2 ADD DUP5 DUP5 DUP5 ADD GT ISZERO PUSH2 0x593 JUMPI PUSH2 0x592 PUSH2 0x4A4 JUMP JUMPDEST JUMPDEST PUSH2 0x59E DUP5 DUP3 DUP6 PUSH2 0x555 JUMP JUMPDEST POP SWAP4 SWAP3 POP POP POP JUMP JUMPDEST PUSH1 0x0 DUP3 PUSH1 0x1F DUP4 ADD SLT PUSH2 0x5BB JUMPI PUSH2 0x5BA PUSH2 0x49F JUMP JUMPDEST JUMPDEST DUP2 CALLDATALOAD PUSH2 0x5CB DUP5 DUP3 PUSH1 0x20 DUP7 ADD PUSH2 0x564 JUMP JUMPDEST SWAP2 POP POP SWAP3 SWAP2 POP POP JUMP JUMPDEST PUSH1 0x0 PUSH1 0x20 DUP3 DUP5 SUB SLT ISZERO PUSH2 0x5EA JUMPI PUSH2 0x5E9 PUSH2 0x37C JUMP JUMPDEST JUMPDEST PUSH1 0x0 DUP3 ADD CALLDATALOAD PUSH8 0xFFFFFFFFFFFFFFFF DUP2 GT ISZERO PUSH2 0x608 JUMPI PUSH2 0x607 PUSH2 0x381 JUMP JUMPDEST JUMPDEST PUSH2 0x614 DUP5 DUP3 DUP6 ADD PUSH2 0x5A6 JUMP JUMPDEST SWAP2 POP POP SWAP3 SWAP2 POP POP JUMP JUMPDEST PUSH1 0x0 DUP1 PUSH1 0x40 DUP4 DUP6 SUB SLT ISZERO PUSH2 0x634 JUMPI PUSH2 0x633 PUSH2 0x37C JUMP JUMPDEST JUMPDEST PUSH1 0x0 DUP4 ADD CALLDATALOAD PUSH8 0xFFFFFFFFFFFFFFFF DUP2 GT ISZERO PUSH2 0x652 JUMPI PUSH2 0x651 PUSH2 0x381 JUMP JUMPDEST JUMPDEST PUSH2 0x65E DUP6 DUP3 DUP7 ADD PUSH2 0x5A6 JUMP JUMPDEST SWAP3 POP POP PUSH1 0x20 PUSH2 0x66F DUP6 DUP3 DUP7 ADD PUSH2 0x39D JUMP JUMPDEST SWAP2 POP POP SWAP3 POP SWAP3 SWAP1 POP JUMP JUMPDEST PUSH1 0x0 PUSH20 0xFFFFFFFFFFFFFFFFFFFFFFFFFFFFFFFFFFFFFFFF DUP3 AND SWAP1 POP SWAP2 SWAP1 POP JUMP JUMPDEST PUSH1 0x0 DUP2 SWAP1 POP SWAP2 SWAP1 POP JUMP JUMPDEST PUSH1 0x0 PUSH2 0x6BE PUSH2 0x6B9 PUSH2 0x6B4 DUP5 PUSH2 0x679 JUMP JUMPDEST PUSH2 0x699 JUMP JUMPDEST PUSH2 0x679 JUMP JUMPDEST SWAP1 POP SWAP2 SWAP1 POP JUMP JUMPDEST PUSH1 0x0 PUSH2 0x6D0 DUP3 PUSH2 0x6A3 JUMP JUMPDEST SWAP1 POP SWAP2 SWAP1 POP JUMP JUMPDEST PUSH1 0x0 PUSH2 0x6E2 DUP3 PUSH2 0x6C5 JUMP JUMPDEST SWAP1 POP SWAP2 SWAP1 POP JUMP JUMPDEST PUSH2 0x6F2 DUP2 PUSH2 0x6D7 JUMP JUMPDEST DUP3 MSTORE POP POP JUMP JUMPDEST PUSH1 0x0 PUSH1 0x20 DUP3 ADD SWAP1 POP PUSH2 0x70D PUSH1 0x0 DUP4 ADD DUP5 PUSH2 0x6E9 JUMP JUMPDEST SWAP3 SWAP2 POP POP JUMP JUMPDEST PUSH32 0x4E487B7100000000000000000000000000000000000000000000000000000000 PUSH1 0x0 MSTORE PUSH1 0x22 PUSH1 0x4 MSTORE PUSH1 0x24 PUSH1 0x0 REVERT JUMPDEST PUSH1 0x0 PUSH1 0x2 DUP3 DIV SWAP1 POP PUSH1 0x1 DUP3 AND DUP1 PUSH2 0x75A JUMPI PUSH1 0x7F DUP3 AND SWAP2 POP JUMPDEST PUSH1 0x20 DUP3 LT DUP2 SUB PUSH2 0x76D JUMPI PUSH2 0x76C PUSH2 0x713 JUMP JUMPDEST JUMPDEST POP SWAP2 SWAP1 POP JUMP JUMPDEST PUSH1 0x0 DUP2 SWAP1 POP DUP2 PUSH1 0x0 MSTORE PUSH1 0x20 PUSH1 0x0 KECCAK256 SWAP1 POP SWAP2 SWAP1 POP JUMP JUMPDEST PUSH1 0x0 PUSH1 0x20 PUSH1 0x1F DUP4 ADD DIV SWAP1 POP SWAP2 SWAP1 POP JUMP JUMPDEST PUSH1 0x0 DUP3 DUP3 SHL SWAP1 POP SWAP3 SWAP2 POP POP JUMP JUMPDEST PUSH1 0x0 PUSH1 0x8 DUP4 MUL PUSH2 0x7D5 PUSH32 0xFFFFFFFFFFFFFFFFFFFFFFFFFFFFFFFFFFFFFFFFFFFFFFFFFFFFFFFFFFFFFFFF DUP3 PUSH2 0x798 JUMP JUMPDEST PUSH2 0x7DF DUP7 DUP4 PUSH2 0x798 JUMP JUMPDEST SWAP6 POP DUP1 NOT DUP5 AND SWAP4 POP DUP1 DUP7 AND DUP5 OR SWAP3 POP POP POP SWAP4 SWAP3 POP POP POP JUMP JUMPDEST PUSH1 0x0 PUSH2 0x812 PUSH2 0x80D PUSH2 0x808 DUP5 PUSH2 0x33E JUMP JUMPDEST PUSH2 0x699 JUMP JUMPDEST PUSH2 0x33E JUMP JUMPDEST SWAP1 POP SWAP2 SWAP1 POP JUMP JUMPDEST PUSH1 0x0 DUP2 SWAP1 POP SWAP2 SWAP1 POP JUMP JUMPDEST PUSH2 0x82C DUP4 PUSH2 0x7F7 JUMP JUMPDEST PUSH2 0x840 PUSH2 0x838 DUP3 PUSH2 0x819 JUMP JUMPDEST DUP5 DUP5 SLOAD PUSH2 0x7A5 JUMP JUMPDEST DUP3 SSTORE POP POP POP POP JUMP JUMPDEST PUSH1 0x0 SWAP1 JUMP JUMPDEST PUSH2 0x855 PUSH2 0x848 JUMP JUMPDEST PUSH2 0x860 DUP2 DUP5 DUP5 PUSH2 0x823 JUMP JUMPDEST POP POP POP JUMP JUMPDEST JUMPDEST DUP2 DUP2 LT ISZERO PUSH2 0x884 JUMPI PUSH2 0x879 PUSH1 0x0 DUP3 PUSH2 0x84D JUMP JUMPDEST PUSH1 0x1 DUP2 ADD SWAP1 POP PUSH2 0x866 JUMP JUMPDEST POP POP JUMP JUMPDEST PUSH1 0x1F DUP3 GT ISZERO PUSH2 0x8C9 JUMPI PUSH2 0x89A DUP2 PUSH2 0x773 JUMP JUMPDEST PUSH2 0x8A3 DUP5 PUSH2 0x788 JUMP JUMPDEST DUP2 ADD PUSH1 0x20 DUP6 LT ISZERO PUSH2 0x8B2 JUMPI DUP2 SWAP1 POP JUMPDEST PUSH2 0x8C6 PUSH2 0x8BE DUP6 PUSH2 0x788 JUMP JUMPDEST DUP4 ADD DUP3 PUSH2 0x865 JUMP JUMPDEST POP POP JUMPDEST POP POP POP JUMP JUMPDEST PUSH1 0x0 DUP3 DUP3 SHR SWAP1 POP SWAP3 SWAP2 POP POP JUMP JUMPDEST PUSH1 0x0 PUSH2 0x8EC PUSH1 0x0 NOT DUP5 PUSH1 0x8 MUL PUSH2 0x8CE JUMP JUMPDEST NOT DUP1 DUP4 AND SWAP2 POP POP SWAP3 SWAP2 POP POP JUMP JUMPDEST PUSH1 0x0 PUSH2 0x905 DUP4 DUP4 PUSH2 0x8DB JUMP JUMPDEST SWAP2 POP DUP3 PUSH1 0x2 MUL DUP3 OR SWAP1 POP SWAP3 SWAP2 POP POP JUMP JUMPDEST PUSH2 0x91E DUP3 PUSH2 0x3DF JUMP JUMPDEST PUSH8 0xFFFFFFFFFFFFFFFF DUP2 GT ISZERO PUSH2 0x937 JUMPI PUSH2 0x936 PUSH2 0x4A9 JUMP JUMPDEST JUMPDEST PUSH2 0x941 DUP3 SLOAD PUSH2 0x742 JUMP JUMPDEST PUSH2 0x94C DUP3 DUP3 DUP6 PUSH2 0x888 JUMP JUMPDEST PUSH1 0x0 PUSH1 0x20 SWAP1 POP PUSH1 0x1F DUP4 GT PUSH1 0x1 DUP2 EQ PUSH2 0x97F JUMPI PUSH1 0x0 DUP5 ISZERO PUSH2 0x96D JUMPI DUP3 DUP8 ADD MLOAD SWAP1 POP JUMPDEST PUSH2 0x977 DUP6 DUP3 PUSH2 0x8F9 JUMP JUMPDEST DUP7 SSTORE POP PUSH2 0x9DF JUMP JUMPDEST PUSH1 0x1F NOT DUP5 AND PUSH2 0x98D DUP7 PUSH2 0x773 JUMP JUMPDEST PUSH1 0x0 JUMPDEST DUP3 DUP2 LT ISZERO PUSH2 0x9B5 JUMPI DUP5 DUP10 ADD MLOAD DUP3 SSTORE PUSH1 0x1 DUP3 ADD SWAP2 POP PUSH1 0x20 DUP6 ADD SWAP5 POP PUSH1 0x20 DUP2 ADD SWAP1 POP PUSH2 0x990 JUMP JUMPDEST DUP7 DUP4 LT ISZERO PUSH2 0x9D2 JUMPI DUP5 DUP10 ADD MLOAD PUSH2 0x9CE PUSH1 0x1F DUP10 AND DUP3 PUSH2 0x8DB JUMP JUMPDEST DUP4 SSTORE POP JUMPDEST PUSH1 0x1 PUSH1 0x2 DUP9 MUL ADD DUP9 SSTORE POP POP POP JUMPDEST POP POP POP POP POP POP JUMP JUMPDEST PUSH1 0x0 DUP2 SWAP1 POP SWAP3 SWAP2 POP POP JUMP JUMPDEST PUSH1 0x0 PUSH2 0x9FD DUP3 PUSH2 0x3DF JUMP JUMPDEST PUSH2 0xA07 DUP2 DUP6 PUSH2 0x9E7 JUMP JUMPDEST SWAP4 POP PUSH2 0xA17 DUP2 DUP6 PUSH1 0x20 DUP7 ADD PUSH2 0x3FB JUMP JUMPDEST DUP1 DUP5 ADD SWAP2 POP POP SWAP3 SWAP2 POP POP JUMP JUMPDEST PUSH1 0x0 PUSH2 0xA2F DUP3 DUP5 PUSH2 0x9F2 JUMP JUMPDEST SWAP2 POP DUP2 SWAP1 POP SWAP3 SWAP2 POP POP JUMP INVALID LOG2 PUSH5 0x6970667358 0x22 SLT KECCAK256 0xD3 0x4C ISZERO EQ 0xF7 PUSH31 0xBFB6144549EFE003A7D0B5550006BE29B70597FDC56037F7876B64736F6C63 NUMBER STOP ADDMOD SGT STOP CALLER "
				},
				"gasEstimates": {
					"creation": {
						"codeDepositCost": "534400",
						"executionCost": "568",
						"totalCost": "534968"
					},
					"external": {
						"CreateSimpleStorageContract()": "166",
						"addPerson(string,uint256)": "infinite",
						"listOfPeople(uint256)": "infinite",
						"myfavnumber()": "2495",
						"mysimpleStorage()": "infinite",
						"nameToFavNumber(string)": "infinite",
						"retrieve()": "2438",
						"store(uint256)": "22587"
					}
				},
				"methodIdentifiers": {
					"CreateSimpleStorageContract()": "9fa05b28",
					"addPerson(string,uint256)": "6f760f41",
					"listOfPeople(uint256)": "2ebce631",
					"myfavnumber()": "ee461d15",
					"mysimpleStorage()": "e5b3018b",
					"nameToFavNumber(string)": "43ec8f47",
					"retrieve()": "2e64cec1",
					"store(uint256)": "6057361d"
				}
			},
			"storageLayout": {
				"storage": [
					{
						"astId": 3,
						"contract": "StorageFcatory.sol:StorageFactory",
						"label": "myfavnumber",
						"offset": 0,
						"slot": "0",
						"type": "t_uint256"
					},
					{
						"astId": 6,
						"contract": "StorageFcatory.sol:StorageFactory",
						"label": "listOffavnumbers",
						"offset": 0,
						"slot": "1",
						"type": "t_array(t_uint256)dyn_storage"
					},
					{
						"astId": 15,
						"contract": "StorageFcatory.sol:StorageFactory",
						"label": "listOfPeople",
						"offset": 0,
						"slot": "2",
						"type": "t_array(t_struct(Person)11_storage)dyn_storage"
					},
					{
						"astId": 19,
						"contract": "StorageFcatory.sol:StorageFactory",
						"label": "nameToFavNumber",
						"offset": 0,
						"slot": "3",
						"type": "t_mapping(t_string_memory_ptr,t_uint256)"
					},
					{
						"astId": 70,
						"contract": "StorageFcatory.sol:StorageFactory",
						"label": "mysimpleStorage",
						"offset": 0,
						"slot": "4",
						"type": "t_contract(SimpleStorage)61"
					}
				],
				"types": {
					"t_array(t_struct(Person)11_storage)dyn_storage": {
						"base": "t_struct(Person)11_storage",
						"encoding": "dynamic_array",
						"label": "struct SimpleStorage.Person[]",
						"numberOfBytes": "32"
					},
					"t_array(t_uint256)dyn_storage": {
						"base": "t_uint256",
						"encoding": "dynamic_array",
						"label": "uint256[]",
						"numberOfBytes": "32"
					},
					"t_contract(SimpleStorage)61": {
						"encoding": "inplace",
						"label": "contract SimpleStorage",
						"numberOfBytes": "20"
					},
					"t_mapping(t_string_memory_ptr,t_uint256)": {
						"encoding": "mapping",
						"key": "t_string_memory_ptr",
						"label": "mapping(string => uint256)",
						"numberOfBytes": "32",
						"value": "t_uint256"
					},
					"t_string_memory_ptr": {
						"encoding": "bytes",
						"label": "string",
						"numberOfBytes": "32"
					},
					"t_string_storage": {
						"encoding": "bytes",
						"label": "string",
						"numberOfBytes": "32"
					},
					"t_struct(Person)11_storage": {
						"encoding": "inplace",
						"label": "struct SimpleStorage.Person",
						"members": [
							{
								"astId": 8,
								"contract": "StorageFcatory.sol:StorageFactory",
								"label": "favNumber",
								"offset": 0,
								"slot": "0",
								"type": "t_uint256"
							},
							{
								"astId": 10,
								"contract": "StorageFcatory.sol:StorageFactory",
								"label": "name",
								"offset": 0,
								"slot": "1",
								"type": "t_string_storage"
							}
						],
						"numberOfBytes": "64"
					},
					"t_uint256": {
						"encoding": "inplace",
						"label": "uint256",
						"numberOfBytes": "32"
					}
				}
			},
			"userdoc": {
				"kind": "user",
				"methods": {},
				"version": 1
			}
		}
	}
}